{
  "contractName": "BasicPurchaseModule",
  "abi": [
    {
      "constant": true,
      "inputs": [],
      "name": "PURCHASE_KEY",
      "outputs": [
        {
          "name": "",
          "type": "uint8"
        }
      ],
      "payable": false,
      "stateMutability": "view",
      "type": "function"
    },
    {
      "constant": true,
      "inputs": [],
      "name": "sigStockRegistry",
      "outputs": [
        {
          "name": "",
          "type": "address"
        }
      ],
      "payable": false,
      "stateMutability": "view",
      "type": "function"
    },
    {
      "constant": true,
      "inputs": [],
      "name": "purchaserCount",
      "outputs": [
        {
          "name": "",
          "type": "uint256"
        }
      ],
      "payable": false,
      "stateMutability": "view",
      "type": "function"
    },
    {
      "constant": true,
      "inputs": [],
      "name": "fundsWallet",
      "outputs": [
        {
          "name": "",
          "type": "address"
        }
      ],
      "payable": false,
      "stateMutability": "view",
      "type": "function"
    },
    {
      "constant": true,
      "inputs": [],
      "name": "endTime",
      "outputs": [
        {
          "name": "",
          "type": "uint256"
        }
      ],
      "payable": false,
      "stateMutability": "view",
      "type": "function"
    },
    {
      "constant": true,
      "inputs": [
        {
          "name": "",
          "type": "address"
        }
      ],
      "name": "purchasers",
      "outputs": [
        {
          "name": "",
          "type": "uint256"
        }
      ],
      "payable": false,
      "stateMutability": "view",
      "type": "function"
    },
    {
      "constant": true,
      "inputs": [],
      "name": "granularity",
      "outputs": [
        {
          "name": "",
          "type": "uint256"
        }
      ],
      "payable": false,
      "stateMutability": "view",
      "type": "function"
    },
    {
      "constant": true,
      "inputs": [],
      "name": "startTime",
      "outputs": [
        {
          "name": "",
          "type": "uint256"
        }
      ],
      "payable": false,
      "stateMutability": "view",
      "type": "function"
    },
    {
      "constant": false,
      "inputs": [
        {
          "name": "_tokenContract",
          "type": "address"
        }
      ],
      "name": "reclaimERC20",
      "outputs": [],
      "payable": false,
      "stateMutability": "nonpayable",
      "type": "function"
    },
    {
      "constant": true,
      "inputs": [],
      "name": "sigStockProduct",
      "outputs": [
        {
          "name": "",
          "type": "address"
        }
      ],
      "payable": false,
      "stateMutability": "view",
      "type": "function"
    },
    {
      "constant": true,
      "inputs": [],
      "name": "productSold",
      "outputs": [
        {
          "name": "",
          "type": "uint256"
        }
      ],
      "payable": false,
      "stateMutability": "view",
      "type": "function"
    },
    {
      "constant": true,
      "inputs": [],
      "name": "DIVIDE_KEY",
      "outputs": [
        {
          "name": "",
          "type": "uint8"
        }
      ],
      "payable": false,
      "stateMutability": "view",
      "type": "function"
    },
    {
      "constant": true,
      "inputs": [],
      "name": "INVEST_KEY",
      "outputs": [
        {
          "name": "",
          "type": "uint8"
        }
      ],
      "payable": false,
      "stateMutability": "view",
      "type": "function"
    },
    {
      "inputs": [
        {
          "name": "_product",
          "type": "address"
        },
        {
          "name": "_registry",
          "type": "address"
        }
      ],
      "payable": false,
      "stateMutability": "nonpayable",
      "type": "constructor"
    },
    {
      "payable": true,
      "stateMutability": "payable",
      "type": "fallback"
    },
    {
      "anonymous": false,
      "inputs": [
        {
          "indexed": false,
          "name": "_from",
          "type": "address"
        },
        {
          "indexed": false,
          "name": "_wallet",
          "type": "address"
        },
        {
          "indexed": false,
          "name": "_startTime",
          "type": "uint256"
        },
        {
          "indexed": false,
          "name": "_endTime",
          "type": "uint256"
        }
      ],
      "name": "RegisterdBasicPurchaseConfig",
      "type": "event"
    },
    {
      "anonymous": false,
      "inputs": [
        {
          "indexed": true,
          "name": "sigStockProduct",
          "type": "address"
        },
        {
          "indexed": true,
          "name": "beneficiary",
          "type": "address"
        },
        {
          "indexed": false,
          "name": "amount",
          "type": "uint256"
        }
      ],
      "name": "ProductPurchase",
      "type": "event"
    },
    {
      "anonymous": false,
      "inputs": [
        {
          "indexed": false,
          "name": "_oldGranularity",
          "type": "uint256"
        },
        {
          "indexed": false,
          "name": "_newGranularity",
          "type": "uint256"
        }
      ],
      "name": "LogGranularityChanged",
      "type": "event"
    },
    {
      "constant": false,
      "inputs": [
        {
          "name": "_startTime",
          "type": "uint256"
        },
        {
          "name": "_endTime",
          "type": "uint256"
        },
        {
          "name": "_fundsReceiver",
          "type": "address"
        },
        {
          "name": "_from",
          "type": "address"
        }
      ],
      "name": "configure",
      "outputs": [
        {
          "name": "",
          "type": "bool"
        }
      ],
      "payable": false,
      "stateMutability": "nonpayable",
      "type": "function"
    },
    {
      "constant": false,
      "inputs": [
        {
          "name": "_granularity",
          "type": "uint256"
        }
      ],
      "name": "changeGranularity",
      "outputs": [
        {
          "name": "",
          "type": "bool"
        }
      ],
      "payable": false,
      "stateMutability": "nonpayable",
      "type": "function"
    },
    {
      "constant": false,
      "inputs": [
        {
          "name": "_investor",
          "type": "address"
        }
      ],
      "name": "purchaseProduct",
      "outputs": [
        {
          "name": "",
          "type": "bool"
        }
      ],
      "payable": true,
      "stateMutability": "payable",
      "type": "function"
    },
    {
      "constant": true,
      "inputs": [
        {
          "name": "_purchaser",
          "type": "address"
        }
      ],
      "name": "isPurchaser",
      "outputs": [
        {
          "name": "",
          "type": "bool"
        }
      ],
      "payable": false,
      "stateMutability": "view",
      "type": "function"
    },
    {
      "constant": true,
      "inputs": [],
      "name": "getNumberPurchasers",
      "outputs": [
        {
          "name": "",
          "type": "uint256"
        }
      ],
      "payable": false,
      "stateMutability": "view",
      "type": "function"
    },
    {
      "constant": true,
      "inputs": [],
      "name": "getRaisedKlay",
      "outputs": [
        {
          "name": "",
          "type": "uint256"
        }
      ],
      "payable": false,
      "stateMutability": "view",
      "type": "function"
    },
    {
      "constant": true,
      "inputs": [],
      "name": "getType",
      "outputs": [
        {
          "name": "",
          "type": "uint8"
        }
      ],
      "payable": false,
      "stateMutability": "view",
      "type": "function"
    },
    {
      "constant": true,
      "inputs": [],
      "name": "getName",
      "outputs": [
        {
          "name": "",
          "type": "bytes32"
        }
      ],
      "payable": false,
      "stateMutability": "view",
      "type": "function"
    }
  ],
  "bytecode": "0x60806040526000600160146101000a81548160ff02191690831515021790555034801561002b57600080fd5b506040516040806116de83398101806040528101908080519060200190929190805190602001909291905050508181816000806101000a81548173ffffffffffffffffffffffffffffffffffffffff021916908373ffffffffffffffffffffffffffffffffffffffff16021790555080600160006101000a81548173ffffffffffffffffffffffffffffffffffffffff021916908373ffffffffffffffffffffffffffffffffffffffff160217905550505050506115f0806100ee6000396000f30060806040526004361061011d576000357c0100000000000000000000000000000000000000000000000000000000900463ffffffff16806301d84c42146101295780630cc72f071461015a5780631101eaaf146101b157806315dae03e146101dc57806317d7de7c1461020d578063210a8d0e146102405780632194f3a2146102855780633197cbb6146102dc57806339ad02121461030757806343755beb1461035e578063556f0dc714610389578063680718af146103b457806378e97925146103df5780638905fd4f1461040a578063aac907b01461044d578063b363eade1461049b578063b785e052146104f2578063c11c42131461051d578063d3efbdc314610578578063e282192d146105a9578063ff91a68d14610638575b61012633610669565b50005b34801561013557600080fd5b5061013e610775565b604051808260ff1660ff16815260200191505060405180910390f35b34801561016657600080fd5b5061016f61077a565b604051808273ffffffffffffffffffffffffffffffffffffffff1673ffffffffffffffffffffffffffffffffffffffff16815260200191505060405180910390f35b3480156101bd57600080fd5b506101c66107a0565b6040518082815260200191505060405180910390f35b3480156101e857600080fd5b506101f16107a6565b604051808260ff1660ff16815260200191505060405180910390f35b34801561021957600080fd5b506102226107af565b60405180826000191660001916815260200191505060405180910390f35b34801561024c57600080fd5b5061026b600480360381019080803590602001909291905050506107d7565b604051808215151515815260200191505060405180910390f35b34801561029157600080fd5b5061029a6108a2565b604051808273ffffffffffffffffffffffffffffffffffffffff1673ffffffffffffffffffffffffffffffffffffffff16815260200191505060405180910390f35b3480156102e857600080fd5b506102f16108c8565b6040518082815260200191505060405180910390f35b34801561031357600080fd5b50610348600480360381019080803573ffffffffffffffffffffffffffffffffffffffff1690602001909291905050506108ce565b6040518082815260200191505060405180910390f35b34801561036a57600080fd5b506103736108e6565b6040518082815260200191505060405180910390f35b34801561039557600080fd5b5061039e6108f0565b6040518082815260200191505060405180910390f35b3480156103c057600080fd5b506103c96108f6565b6040518082815260200191505060405180910390f35b3480156103eb57600080fd5b506103f4610900565b6040518082815260200191505060405180910390f35b34801561041657600080fd5b5061044b600480360381019080803573ffffffffffffffffffffffffffffffffffffffff169060200190929190505050610906565b005b610481600480360381019080803573ffffffffffffffffffffffffffffffffffffffff169060200190929190505050610669565b604051808215151515815260200191505060405180910390f35b3480156104a757600080fd5b506104b0610d53565b604051808273ffffffffffffffffffffffffffffffffffffffff1673ffffffffffffffffffffffffffffffffffffffff16815260200191505060405180910390f35b3480156104fe57600080fd5b50610507610d78565b6040518082815260200191505060405180910390f35b34801561052957600080fd5b5061055e600480360381019080803573ffffffffffffffffffffffffffffffffffffffff169060200190929190505050610d7e565b604051808215151515815260200191505060405180910390f35b34801561058457600080fd5b5061058d610ddb565b604051808260ff1660ff16815260200191505060405180910390f35b3480156105b557600080fd5b5061061e6004803603810190808035906020019092919080359060200190929190803573ffffffffffffffffffffffffffffffffffffffff169060200190929190803573ffffffffffffffffffffffffffffffffffffffff169060200190929190505050610de0565b604051808215151515815260200191505060405180910390f35b34801561064457600080fd5b5061064d6110d0565b604051808260ff1660ff16815260200191505060405180910390f35b600080600160149054906101000a900460ff1615151561068857600080fd5b60018060146101000a81548160ff0219169083151502179055503480600254141515610742576040517f08c379a00000000000000000000000000000000000000000000000000000000081526004018080602001828103825260338152602001807f556e61626c6520746f206d6f6469667920746f6b656e2062616c616e6365732081526020017f61742074686973206772616e756c61726974790000000000000000000000000081525060400191505060405180910390fd5b34915061074f84836110d5565b60019250506000600160146101000a81548160ff02191690831515021790555050919050565b600281565b600160009054906101000a900473ffffffffffffffffffffffffffffffffffffffff1681565b60035481565b60006002905090565b60007f426173696350757263686173654d6f64756c6500000000000000000000000000905090565b6000808214151515610851576040517f08c379a00000000000000000000000000000000000000000000000000000000081526004018080602001828103825260188152602001807f4772616e756c61726974792063616e206e6f742062652030000000000000000081525060200191505060405180910390fd5b7fd13c95c3e8cd875fc20a3da70637bcd9e053e0414035532577769470649507dc60025483604051808381526020018281526020019250505060405180910390a18160028190555060019050919050565b600560009054906101000a900473ffffffffffffffffffffffffffffffffffffffff1681565b60075481565b60086020528060005260406000206000915090505481565b6000600454905090565b60025481565b6000600354905090565b60065481565b600080600160009054906101000a900473ffffffffffffffffffffffffffffffffffffffff1673ffffffffffffffffffffffffffffffffffffffff1663f688cd18336040518263ffffffff167c0100000000000000000000000000000000000000000000000000000000028152600401808273ffffffffffffffffffffffffffffffffffffffff1673ffffffffffffffffffffffffffffffffffffffff168152602001915050602060405180830381600087803b1580156109c657600080fd5b505af11580156109da573d6000803e3d6000fd5b505050506040513d60208110156109f057600080fd5b8101908080519060200190929190505050151560011515141515610a7c576040517f08c379a00000000000000000000000000000000000000000000000000000000081526004018080602001828103825260178152602001807f6d73672e73656e646572206973206e6f742061646d696e00000000000000000081525060200191505060405180910390fd5b600073ffffffffffffffffffffffffffffffffffffffff168373ffffffffffffffffffffffffffffffffffffffff1614151515610b21576040517f08c379a000000000000000000000000000000000000000000000000000000000815260040180806020018281038252600d8152602001807f697320616464726573732830290000000000000000000000000000000000000081525060200191505060405180910390fd5b8291508173ffffffffffffffffffffffffffffffffffffffff166370a08231306040518263ffffffff167c0100000000000000000000000000000000000000000000000000000000028152600401808273ffffffffffffffffffffffffffffffffffffffff1673ffffffffffffffffffffffffffffffffffffffff168152602001915050602060405180830381600087803b158015610bbf57600080fd5b505af1158015610bd3573d6000803e3d6000fd5b505050506040513d6020811015610be957600080fd5b810190808051906020019092919050505090508173ffffffffffffffffffffffffffffffffffffffff1663a9059cbb33836040518363ffffffff167c0100000000000000000000000000000000000000000000000000000000028152600401808373ffffffffffffffffffffffffffffffffffffffff1673ffffffffffffffffffffffffffffffffffffffff16815260200182815260200192505050602060405180830381600087803b158015610c9f57600080fd5b505af1158015610cb3573d6000803e3d6000fd5b505050506040513d6020811015610cc957600080fd5b81019080805190602001909291905050501515610d4e576040517f08c379a000000000000000000000000000000000000000000000000000000000815260040180806020018281038252601e8152602001807f666e3a7265636c61696d4552433230207472616e73666572206572726f72000081525060200191505060405180910390fd5b505050565b6000809054906101000a900473ffffffffffffffffffffffffffffffffffffffff1681565b60045481565b600080600090506000600860008573ffffffffffffffffffffffffffffffffffffffff1673ffffffffffffffffffffffffffffffffffffffff168152602001908152602001600020541115610dd257600190505b80915050919050565b600381565b60008060009054906101000a900473ffffffffffffffffffffffffffffffffffffffff1673ffffffffffffffffffffffffffffffffffffffff163373ffffffffffffffffffffffffffffffffffffffff16141515610ea6576040517f08c379a000000000000000000000000000000000000000000000000000000000815260040180806020018281038252600e8152602001807f6973206e6f742070726f6475637400000000000000000000000000000000000081525060200191505060405180910390fd5b600073ffffffffffffffffffffffffffffffffffffffff168373ffffffffffffffffffffffffffffffffffffffff1614151515610f4b576040517f08c379a000000000000000000000000000000000000000000000000000000000815260040180806020018281038252601d8152602001807f5a65726f2061646472657373206973206e6f74207065726d697474656400000081525060200191505060405180910390fd5b428510158015610f5a57508484115b1515610fce576040517f08c379a000000000000000000000000000000000000000000000000000000000815260040180806020018281038252601d8152602001807f4461746520706172616d657465727320617265206e6f742076616c696400000081525060200191505060405180910390fd5b846006819055508360078190555082600560006101000a81548173ffffffffffffffffffffffffffffffffffffffff021916908373ffffffffffffffffffffffffffffffffffffffff1602179055507fb22065b3ac87ec47cb8df81bdcd20613f0935d54df63c176ad99b131858fd0ef82848787604051808573ffffffffffffffffffffffffffffffffffffffff1673ffffffffffffffffffffffffffffffffffffffff1681526020018473ffffffffffffffffffffffffffffffffffffffff1673ffffffffffffffffffffffffffffffffffffffff16815260200183815260200182815260200194505050505060405180910390a160019050949350505050565b600181565b60006110e1838361119c565b8190506110f98260045461130a90919063ffffffff16565b6004819055506111098382611326565b611111611414565b8273ffffffffffffffffffffffffffffffffffffffff166000809054906101000a900473ffffffffffffffffffffffffffffffffffffffff1673ffffffffffffffffffffffffffffffffffffffff167f52fd9114a926713d55020a31bf73dcee3d85efee5dbddd2f60610ced8189d0ba836040518082815260200191505060405180910390a3505050565b600073ffffffffffffffffffffffffffffffffffffffff168273ffffffffffffffffffffffffffffffffffffffff1614151515611267576040517f08c379a00000000000000000000000000000000000000000000000000000000081526004018080602001828103825260248152602001807f42656e656669636961727920616464726573732073686f756c64206e6f74206281526020017f652030780000000000000000000000000000000000000000000000000000000081525060400191505060405180910390fd5b60008114151515611306576040517f08c379a00000000000000000000000000000000000000000000000000000000081526004018080602001828103825260288152602001807f416d6f756e7420696e7665737465642073686f756c64206e6f7420626520657181526020017f75616c20746f203000000000000000000000000000000000000000000000000081525060400191505060405180910390fd5b5050565b6000818301905082811015151561131d57fe5b80905092915050565b6000600860008473ffffffffffffffffffffffffffffffffffffffff1673ffffffffffffffffffffffffffffffffffffffff16815260200190815260200160002054141561137b576001600354016003819055505b6113cd81600860008573ffffffffffffffffffffffffffffffffffffffff1673ffffffffffffffffffffffffffffffffffffffff1681526020019081526020016000205461130a90919063ffffffff16565b600860008473ffffffffffffffffffffffffffffffffffffffff1673ffffffffffffffffffffffffffffffffffffffff168152602001908152602001600020819055505050565b60008060009054906101000a900473ffffffffffffffffffffffffffffffffffffffff1673ffffffffffffffffffffffffffffffffffffffff166363b46bde60036040518263ffffffff167c0100000000000000000000000000000000000000000000000000000000028152600401808260ff1660ff168152602001915050602060405180830381600087803b1580156114ad57600080fd5b505af11580156114c1573d6000803e3d6000fd5b505050506040513d60208110156114d757600080fd5b810190808051906020019092919050505090508073ffffffffffffffffffffffffffffffffffffffff166325b31a97336040518263ffffffff167c0100000000000000000000000000000000000000000000000000000000028152600401808273ffffffffffffffffffffffffffffffffffffffff1673ffffffffffffffffffffffffffffffffffffffff168152602001915050602060405180830381600087803b15801561158557600080fd5b505af1158015611599573d6000803e3d6000fd5b505050506040513d60208110156115af57600080fd5b810190808051906020019092919050505050505600a165627a7a72305820722ac801cb6c5e5d7918ba17e8e6f7ad9330e57314794fddca346270bc436cfd0029",
  "source": "pragma solidity >=0.4.24;\n\nimport \"../../interface/InterfacePurchaseModule.sol\";\nimport \"../../library/ReentrancyGuard.sol\";\nimport \"../../library/SafeMath.sol\";\nimport \"../../interface/InterfaceDivideModule.sol\";\n/**\n* @dev 기본적인 구매 모듈  ( 추후 구매자를 위한 )\n*\n */\n\ncontract BasicPurchaseModule is InterfacePurchaseModule, ReentrancyGuard {\n    using SafeMath for uint256;\n    event RegisterdBasicPurchaseConfig(address _from, address _wallet, uint256 _startTime, uint256 _endTime);\n    event ProductPurchase(address indexed sigStockProduct, address indexed beneficiary, uint256 amount);\n    event LogGranularityChanged(uint256 _oldGranularity, uint256 _newGranularity);\n\n    uint public granularity;\n    uint256 public purchaserCount;\n    uint256 public productSold;\n    address public fundsWallet;\n    uint256 public startTime;\n    uint256 public endTime;\n\n    function configure(\n        uint256 _startTime,\n        uint256 _endTime,\n        address _fundsReceiver,\n        address _from\n    )\n    public\n    onlyProduct\n    returns (bool)\n    {\n        require(_fundsReceiver != address(0), \"Zero address is not permitted\");\n        require(_startTime >= now && _endTime > _startTime, \"Date parameters are not valid\");\n        startTime = _startTime;\n        endTime = _endTime;\n        fundsWallet = _fundsReceiver;\n        \n        emit RegisterdBasicPurchaseConfig(_from, _fundsReceiver, _startTime, _endTime);\n        \n        return true;\n\n    }\n\n    mapping (address => uint256) public purchasers;\n    \n    constructor (address _product, address _registry) public\n    InterfaceModule(_product, _registry)\n    {\n        \n    }\n\n    function () external payable {\n        purchaseProduct(msg.sender);\n    }\n\n    modifier checkGranularity(uint256 _amount) {\n        require(granularity == _amount, \"Unable to modify token balances at this granularity\");\n        _;\n    }\n    \n    function changeGranularity(uint256 _granularity) public returns(bool) {\n        \n        require(_granularity != 0, \"Granularity can not be 0\");\n        \n        emit LogGranularityChanged(granularity, _granularity);\n        \n        granularity = _granularity;\n\n        return true;\n    }\n\n    // msg.value와 granularity 값이 같아야 한다.\n    function purchaseProduct(address _investor) public payable nonReentrant checkGranularity(msg.value) returns (bool) {\n        \n        uint256 klayAmount = msg.value;\n\n        _processTx(_investor, klayAmount);\n\n        return true;\n    }\n\n    function _processTx(address _beneficiary, uint256 _investedAmount) internal {\n\n        _preValidatePurchase(_beneficiary, _investedAmount);\n        // calculate token amount to be created\n        uint256 klays = _investedAmount;\n\n        // update state\n        productSold = productSold.add(_investedAmount);\n\n        _processPurchase(_beneficiary, klays);\n\n        _forwardFunds();\n        \n        emit ProductPurchase(sigStockProduct, _beneficiary,  klays);\n\n    }\n    \n    function _preValidatePurchase(address _beneficiary, uint256 _investedAmount)  internal pure  {\n        require(_beneficiary != address(0), \"Beneficiary address should not be 0x\");\n        require(_investedAmount != 0, \"Amount invested should not be equal to 0\");\n        \n    }\n    /**\n    * @notice Executed when a purchase has been validated and is ready to be executed. Not necessarily emits/sends tokens.\n    * @param _beneficiary Address receiving the tokens\n    * @param _tokenAmount Number of tokens to be purchased\n    */\n    function _processPurchase(address _beneficiary, uint256 _tokenAmount) internal {\n        \n        if (purchasers[_beneficiary] == 0) {\n            purchaserCount = purchaserCount + 1;\n        }\n        \n        purchasers[_beneficiary] = purchasers[_beneficiary].add(_tokenAmount);\n\n    }\n\n    function isPurchaser(address _purchaser) public view returns (bool) {\n        \n        bool result = false;\n        if(purchasers[_purchaser] > 0) {\n            result = true;\n        }\n\n        return result;\n    }\n    function getNumberPurchasers() public view returns (uint256) {\n        return purchaserCount;\n    }\n\n    function getRaisedKlay() public view returns (uint256) {       \n        return productSold;\n    }\n\n    function _forwardFunds() internal {\n        address divideModule = InterfaceProduct(sigStockProduct).module(DIVIDE_KEY);\n        \n        InterfaceDivideModule(divideModule).purchase(msg.sender);\n        \n    }\n    \n\n    function getType() public view returns(uint8) {\n        return 2;\n    }\n    \n\n    function getName() public view returns(bytes32) {\n        return \"BasicPurchaseModule\";\n    }\n}",
  "sourcePath": "/Users/berk/side_pj/5nodeProject/smtContract/contracts/modules/basic/BasicPurchaseModule.sol",
  "compiler": {
    "name": "solc",
    "version": "0.4.24+commit.e67f0147.Emscripten.clang"
  },
  "schemaVersion": "3.0.6",
  "updatedAt": "2019-05-25T07:53:18.368Z",
  "devdoc": {
    "methods": {}
  },
  "userdoc": {
    "methods": {}
  }
}