{
  "contractName": "BasicInvestModule",
  "abi": [
    {
      "constant": true,
      "inputs": [],
      "name": "PURCHASE_KEY",
      "outputs": [
        {
          "name": "",
          "type": "uint8"
        }
      ],
      "payable": false,
      "stateMutability": "view",
      "type": "function"
    },
    {
      "constant": true,
      "inputs": [
        {
          "name": "interfaceId",
          "type": "bytes4"
        }
      ],
      "name": "supportsInterface",
      "outputs": [
        {
          "name": "",
          "type": "bool"
        }
      ],
      "payable": false,
      "stateMutability": "view",
      "type": "function"
    },
    {
      "constant": true,
      "inputs": [
        {
          "name": "tokenId",
          "type": "uint256"
        }
      ],
      "name": "getApproved",
      "outputs": [
        {
          "name": "",
          "type": "address"
        }
      ],
      "payable": false,
      "stateMutability": "view",
      "type": "function"
    },
    {
      "constant": false,
      "inputs": [
        {
          "name": "to",
          "type": "address"
        },
        {
          "name": "tokenId",
          "type": "uint256"
        }
      ],
      "name": "approve",
      "outputs": [],
      "payable": false,
      "stateMutability": "nonpayable",
      "type": "function"
    },
    {
      "constant": true,
      "inputs": [],
      "name": "sigStockRegistry",
      "outputs": [
        {
          "name": "",
          "type": "address"
        }
      ],
      "payable": false,
      "stateMutability": "view",
      "type": "function"
    },
    {
      "constant": true,
      "inputs": [],
      "name": "totalSupply",
      "outputs": [
        {
          "name": "",
          "type": "uint256"
        }
      ],
      "payable": false,
      "stateMutability": "view",
      "type": "function"
    },
    {
      "constant": true,
      "inputs": [],
      "name": "fundsWallet",
      "outputs": [
        {
          "name": "",
          "type": "address"
        }
      ],
      "payable": false,
      "stateMutability": "view",
      "type": "function"
    },
    {
      "constant": false,
      "inputs": [
        {
          "name": "from",
          "type": "address"
        },
        {
          "name": "to",
          "type": "address"
        },
        {
          "name": "tokenId",
          "type": "uint256"
        }
      ],
      "name": "transferFrom",
      "outputs": [],
      "payable": false,
      "stateMutability": "nonpayable",
      "type": "function"
    },
    {
      "constant": true,
      "inputs": [],
      "name": "rate",
      "outputs": [
        {
          "name": "",
          "type": "uint256"
        }
      ],
      "payable": false,
      "stateMutability": "view",
      "type": "function"
    },
    {
      "constant": true,
      "inputs": [
        {
          "name": "owner",
          "type": "address"
        },
        {
          "name": "index",
          "type": "uint256"
        }
      ],
      "name": "tokenOfOwnerByIndex",
      "outputs": [
        {
          "name": "",
          "type": "uint256"
        }
      ],
      "payable": false,
      "stateMutability": "view",
      "type": "function"
    },
    {
      "constant": true,
      "inputs": [],
      "name": "endTime",
      "outputs": [
        {
          "name": "",
          "type": "uint256"
        }
      ],
      "payable": false,
      "stateMutability": "view",
      "type": "function"
    },
    {
      "constant": true,
      "inputs": [],
      "name": "cap",
      "outputs": [
        {
          "name": "",
          "type": "uint256"
        }
      ],
      "payable": false,
      "stateMutability": "view",
      "type": "function"
    },
    {
      "constant": false,
      "inputs": [
        {
          "name": "from",
          "type": "address"
        },
        {
          "name": "to",
          "type": "address"
        },
        {
          "name": "tokenId",
          "type": "uint256"
        }
      ],
      "name": "safeTransferFrom",
      "outputs": [],
      "payable": false,
      "stateMutability": "nonpayable",
      "type": "function"
    },
    {
      "constant": true,
      "inputs": [
        {
          "name": "",
          "type": "uint256"
        }
      ],
      "name": "investList",
      "outputs": [
        {
          "name": "tokenId",
          "type": "uint256"
        },
        {
          "name": "owner",
          "type": "address"
        },
        {
          "name": "amount",
          "type": "uint256"
        },
        {
          "name": "timeStamp",
          "type": "uint256"
        }
      ],
      "payable": false,
      "stateMutability": "view",
      "type": "function"
    },
    {
      "constant": true,
      "inputs": [
        {
          "name": "index",
          "type": "uint256"
        }
      ],
      "name": "tokenByIndex",
      "outputs": [
        {
          "name": "",
          "type": "uint256"
        }
      ],
      "payable": false,
      "stateMutability": "view",
      "type": "function"
    },
    {
      "constant": true,
      "inputs": [],
      "name": "granularity",
      "outputs": [
        {
          "name": "",
          "type": "uint256"
        }
      ],
      "payable": false,
      "stateMutability": "view",
      "type": "function"
    },
    {
      "constant": true,
      "inputs": [
        {
          "name": "tokenId",
          "type": "uint256"
        }
      ],
      "name": "ownerOf",
      "outputs": [
        {
          "name": "",
          "type": "address"
        }
      ],
      "payable": false,
      "stateMutability": "view",
      "type": "function"
    },
    {
      "constant": true,
      "inputs": [],
      "name": "fundsRaised",
      "outputs": [
        {
          "name": "",
          "type": "uint256"
        }
      ],
      "payable": false,
      "stateMutability": "view",
      "type": "function"
    },
    {
      "constant": true,
      "inputs": [
        {
          "name": "",
          "type": "address"
        }
      ],
      "name": "investors",
      "outputs": [
        {
          "name": "",
          "type": "uint256"
        }
      ],
      "payable": false,
      "stateMutability": "view",
      "type": "function"
    },
    {
      "constant": true,
      "inputs": [
        {
          "name": "owner",
          "type": "address"
        }
      ],
      "name": "balanceOf",
      "outputs": [
        {
          "name": "",
          "type": "uint256"
        }
      ],
      "payable": false,
      "stateMutability": "view",
      "type": "function"
    },
    {
      "constant": true,
      "inputs": [],
      "name": "startTime",
      "outputs": [
        {
          "name": "",
          "type": "uint256"
        }
      ],
      "payable": false,
      "stateMutability": "view",
      "type": "function"
    },
    {
      "constant": false,
      "inputs": [
        {
          "name": "_tokenContract",
          "type": "address"
        }
      ],
      "name": "reclaimERC20",
      "outputs": [],
      "payable": false,
      "stateMutability": "nonpayable",
      "type": "function"
    },
    {
      "constant": false,
      "inputs": [
        {
          "name": "to",
          "type": "address"
        },
        {
          "name": "approved",
          "type": "bool"
        }
      ],
      "name": "setApprovalForAll",
      "outputs": [],
      "payable": false,
      "stateMutability": "nonpayable",
      "type": "function"
    },
    {
      "constant": true,
      "inputs": [],
      "name": "max_investors",
      "outputs": [
        {
          "name": "",
          "type": "uint256"
        }
      ],
      "payable": false,
      "stateMutability": "view",
      "type": "function"
    },
    {
      "constant": true,
      "inputs": [],
      "name": "sigStockProduct",
      "outputs": [
        {
          "name": "",
          "type": "address"
        }
      ],
      "payable": false,
      "stateMutability": "view",
      "type": "function"
    },
    {
      "constant": true,
      "inputs": [],
      "name": "productSold",
      "outputs": [
        {
          "name": "",
          "type": "uint256"
        }
      ],
      "payable": false,
      "stateMutability": "view",
      "type": "function"
    },
    {
      "constant": false,
      "inputs": [
        {
          "name": "from",
          "type": "address"
        },
        {
          "name": "to",
          "type": "address"
        },
        {
          "name": "tokenId",
          "type": "uint256"
        },
        {
          "name": "_data",
          "type": "bytes"
        }
      ],
      "name": "safeTransferFrom",
      "outputs": [],
      "payable": false,
      "stateMutability": "nonpayable",
      "type": "function"
    },
    {
      "constant": true,
      "inputs": [],
      "name": "DIVIDE_KEY",
      "outputs": [
        {
          "name": "",
          "type": "uint8"
        }
      ],
      "payable": false,
      "stateMutability": "view",
      "type": "function"
    },
    {
      "constant": true,
      "inputs": [],
      "name": "investorCount",
      "outputs": [
        {
          "name": "",
          "type": "uint256"
        }
      ],
      "payable": false,
      "stateMutability": "view",
      "type": "function"
    },
    {
      "constant": true,
      "inputs": [
        {
          "name": "owner",
          "type": "address"
        },
        {
          "name": "operator",
          "type": "address"
        }
      ],
      "name": "isApprovedForAll",
      "outputs": [
        {
          "name": "",
          "type": "bool"
        }
      ],
      "payable": false,
      "stateMutability": "view",
      "type": "function"
    },
    {
      "constant": true,
      "inputs": [],
      "name": "INVEST_KEY",
      "outputs": [
        {
          "name": "",
          "type": "uint8"
        }
      ],
      "payable": false,
      "stateMutability": "view",
      "type": "function"
    },
    {
      "inputs": [
        {
          "name": "_product",
          "type": "address"
        },
        {
          "name": "_registry",
          "type": "address"
        }
      ],
      "payable": false,
      "stateMutability": "nonpayable",
      "type": "constructor"
    },
    {
      "payable": true,
      "stateMutability": "payable",
      "type": "fallback"
    },
    {
      "anonymous": false,
      "inputs": [
        {
          "indexed": true,
          "name": "from",
          "type": "address"
        },
        {
          "indexed": true,
          "name": "to",
          "type": "address"
        },
        {
          "indexed": true,
          "name": "tokenId",
          "type": "uint256"
        }
      ],
      "name": "Transfer",
      "type": "event"
    },
    {
      "anonymous": false,
      "inputs": [
        {
          "indexed": true,
          "name": "owner",
          "type": "address"
        },
        {
          "indexed": true,
          "name": "approved",
          "type": "address"
        },
        {
          "indexed": true,
          "name": "tokenId",
          "type": "uint256"
        }
      ],
      "name": "Approval",
      "type": "event"
    },
    {
      "anonymous": false,
      "inputs": [
        {
          "indexed": true,
          "name": "owner",
          "type": "address"
        },
        {
          "indexed": true,
          "name": "operator",
          "type": "address"
        },
        {
          "indexed": false,
          "name": "approved",
          "type": "bool"
        }
      ],
      "name": "ApprovalForAll",
      "type": "event"
    },
    {
      "anonymous": false,
      "inputs": [
        {
          "indexed": true,
          "name": "investor",
          "type": "address"
        },
        {
          "indexed": true,
          "name": "beneficiary",
          "type": "address"
        },
        {
          "indexed": false,
          "name": "value",
          "type": "uint256"
        },
        {
          "indexed": false,
          "name": "amount",
          "type": "uint256"
        }
      ],
      "name": "ProductInvest",
      "type": "event"
    },
    {
      "anonymous": false,
      "inputs": [
        {
          "indexed": false,
          "name": "tokenId",
          "type": "uint256"
        },
        {
          "indexed": true,
          "name": "beneficiary",
          "type": "address"
        },
        {
          "indexed": false,
          "name": "amount",
          "type": "uint256"
        }
      ],
      "name": "DeliveredStock",
      "type": "event"
    },
    {
      "anonymous": false,
      "inputs": [
        {
          "indexed": false,
          "name": "_oldGranularity",
          "type": "uint256"
        },
        {
          "indexed": false,
          "name": "_newGranularity",
          "type": "uint256"
        }
      ],
      "name": "LogGranularityChanged",
      "type": "event"
    },
    {
      "anonymous": false,
      "inputs": [
        {
          "indexed": false,
          "name": "_from",
          "type": "address"
        },
        {
          "indexed": false,
          "name": "_wallet",
          "type": "address"
        },
        {
          "indexed": false,
          "name": "_cap",
          "type": "uint256"
        },
        {
          "indexed": false,
          "name": "_maxInvestors",
          "type": "uint256"
        },
        {
          "indexed": false,
          "name": "_startTime",
          "type": "uint256"
        },
        {
          "indexed": false,
          "name": "_endTime",
          "type": "uint256"
        }
      ],
      "name": "RegisterdBasicInvestConfig",
      "type": "event"
    },
    {
      "constant": false,
      "inputs": [
        {
          "name": "_granularity",
          "type": "uint256"
        }
      ],
      "name": "changeGranularity",
      "outputs": [
        {
          "name": "",
          "type": "bool"
        }
      ],
      "payable": false,
      "stateMutability": "nonpayable",
      "type": "function"
    },
    {
      "constant": false,
      "inputs": [
        {
          "name": "_startTime",
          "type": "uint256"
        },
        {
          "name": "_endTime",
          "type": "uint256"
        },
        {
          "name": "_cap",
          "type": "uint256"
        },
        {
          "name": "_max_investors",
          "type": "uint256"
        },
        {
          "name": "_fundsReceiver",
          "type": "address"
        },
        {
          "name": "_from",
          "type": "address"
        }
      ],
      "name": "configure",
      "outputs": [
        {
          "name": "",
          "type": "bool"
        }
      ],
      "payable": false,
      "stateMutability": "nonpayable",
      "type": "function"
    },
    {
      "constant": false,
      "inputs": [
        {
          "name": "_investor",
          "type": "address"
        }
      ],
      "name": "investProduct",
      "outputs": [
        {
          "name": "",
          "type": "bool"
        }
      ],
      "payable": true,
      "stateMutability": "payable",
      "type": "function"
    },
    {
      "constant": true,
      "inputs": [],
      "name": "getNumberInvestors",
      "outputs": [
        {
          "name": "",
          "type": "uint256"
        }
      ],
      "payable": false,
      "stateMutability": "view",
      "type": "function"
    },
    {
      "constant": true,
      "inputs": [],
      "name": "getRaisedKlay",
      "outputs": [
        {
          "name": "",
          "type": "uint256"
        }
      ],
      "payable": false,
      "stateMutability": "view",
      "type": "function"
    },
    {
      "constant": true,
      "inputs": [],
      "name": "capReached",
      "outputs": [
        {
          "name": "",
          "type": "bool"
        }
      ],
      "payable": false,
      "stateMutability": "view",
      "type": "function"
    },
    {
      "constant": true,
      "inputs": [],
      "name": "getType",
      "outputs": [
        {
          "name": "",
          "type": "uint8"
        }
      ],
      "payable": false,
      "stateMutability": "view",
      "type": "function"
    },
    {
      "constant": true,
      "inputs": [],
      "name": "getName",
      "outputs": [
        {
          "name": "",
          "type": "bytes32"
        }
      ],
      "payable": false,
      "stateMutability": "view",
      "type": "function"
    }
  ],
  "bytecode": "0x60806040526000600d60006101000a81548160ff0219169083151502179055503480156200002c57600080fd5b50604051604080620033f483398101806040528101908080519060200190929190805190602001909291905050508181816000806101000a81548173ffffffffffffffffffffffffffffffffffffffff021916908373ffffffffffffffffffffffffffffffffffffffff16021790555080600160006101000a81548173ffffffffffffffffffffffffffffffffffffffff021916908373ffffffffffffffffffffffffffffffffffffffff16021790555050506200011c6301ffc9a77c0100000000000000000000000000000000000000000000000000000000026200019e640100000000026401000000009004565b620001596380ac58cd7c0100000000000000000000000000000000000000000000000000000000026200019e640100000000026401000000009004565b6200019663780e9d637c0100000000000000000000000000000000000000000000000000000000026200019e640100000000026401000000009004565b50506200025d565b63ffffffff7c010000000000000000000000000000000000000000000000000000000002817bffffffffffffffffffffffffffffffffffffffffffffffffffffffff191614151515620001f057600080fd5b6001600e6000837bffffffffffffffffffffffffffffffffffffffffffffffffffffffff19167bffffffffffffffffffffffffffffffffffffffffffffffffffffffff1916815260200190815260200160002060006101000a81548160ff02191690831515021790555050565b613187806200026d6000396000f3006080604052600436106101e3576000357c0100000000000000000000000000000000000000000000000000000000900463ffffffff16806301d84c42146101ef57806301ffc9a714610220578063081812fc14610284578063095ea7b3146102f15780630cc72f071461033e57806315dae03e1461039557806317d7de7c146103c657806318160ddd146103f9578063210a8d0e146104245780632194f3a21461046957806323b872dd146104c05780632c4e722e1461052d5780632f745c59146105585780633197cbb6146105b9578063355274ea146105e457806338c59de91461060f57806342842e0e1461063a57806343755beb146106a7578063471195c6146106d257806349d32471146107755780634f6ccce7146107f75780634f93594514610838578063556f0dc7146108675780636352211e146108925780636681b9fd146108ff5780636f7bc9be1461092a57806370a082311461098157806378e97925146109d85780638905fd4f14610a03578063a22cb46514610a46578063ad92f77714610a95578063b363eade14610ac0578063b785e05214610b17578063b88d4fde14610b42578063c42e5d5314610bf5578063d3efbdc314610c43578063d7e64c0014610c74578063e985e9c514610c9f578063ff91a68d14610d1a575b6101ec33610d4b565b50005b3480156101fb57600080fd5b50610204610db7565b604051808260ff1660ff16815260200191505060405180910390f35b34801561022c57600080fd5b5061026a60048036038101908080357bffffffffffffffffffffffffffffffffffffffffffffffffffffffff19169060200190929190505050610dbc565b604051808215151515815260200191505060405180910390f35b34801561029057600080fd5b506102af60048036038101908080359060200190929190505050610e24565b604051808273ffffffffffffffffffffffffffffffffffffffff1673ffffffffffffffffffffffffffffffffffffffff16815260200191505060405180910390f35b3480156102fd57600080fd5b5061033c600480360381019080803573ffffffffffffffffffffffffffffffffffffffff16906020019092919080359060200190929190505050610e75565b005b34801561034a57600080fd5b50610353610fba565b604051808273ffffffffffffffffffffffffffffffffffffffff1673ffffffffffffffffffffffffffffffffffffffff16815260200191505060405180910390f35b3480156103a157600080fd5b506103aa610fe0565b604051808260ff1660ff16815260200191505060405180910390f35b3480156103d257600080fd5b506103db610fe9565b60405180826000191660001916815260200191505060405180910390f35b34801561040557600080fd5b5061040e611011565b6040518082815260200191505060405180910390f35b34801561043057600080fd5b5061044f6004803603810190808035906020019092919050505061101e565b604051808215151515815260200191505060405180910390f35b34801561047557600080fd5b5061047e6110e9565b604051808273ffffffffffffffffffffffffffffffffffffffff1673ffffffffffffffffffffffffffffffffffffffff16815260200191505060405180910390f35b3480156104cc57600080fd5b5061052b600480360381019080803573ffffffffffffffffffffffffffffffffffffffff169060200190929190803573ffffffffffffffffffffffffffffffffffffffff1690602001909291908035906020019092919050505061110f565b005b34801561053957600080fd5b506105426111de565b6040518082815260200191505060405180910390f35b34801561056457600080fd5b506105a3600480360381019080803573ffffffffffffffffffffffffffffffffffffffff169060200190929190803590602001909291905050506111e3565b6040518082815260200191505060405180910390f35b3480156105c557600080fd5b506105ce61125a565b6040518082815260200191505060405180910390f35b3480156105f057600080fd5b506105f9611260565b6040518082815260200191505060405180910390f35b34801561061b57600080fd5b50610624611266565b6040518082815260200191505060405180910390f35b34801561064657600080fd5b506106a5600480360381019080803573ffffffffffffffffffffffffffffffffffffffff169060200190929190803573ffffffffffffffffffffffffffffffffffffffff16906020019092919080359060200190929190505050611270565b005b3480156106b357600080fd5b506106bc611291565b6040518082815260200191505060405180910390f35b3480156106de57600080fd5b5061075b60048036038101908080359060200190929190803590602001909291908035906020019092919080359060200190929190803573ffffffffffffffffffffffffffffffffffffffff169060200190929190803573ffffffffffffffffffffffffffffffffffffffff16906020019092919050505061129b565b604051808215151515815260200191505060405180910390f35b34801561078157600080fd5b506107a060048036038101908080359060200190929190505050611623565b604051808581526020018473ffffffffffffffffffffffffffffffffffffffff1673ffffffffffffffffffffffffffffffffffffffff16815260200183815260200182815260200194505050505060405180910390f35b34801561080357600080fd5b5061082260048036038101908080359060200190929190505050611673565b6040518082815260200191505060405180910390f35b34801561084457600080fd5b5061084d6116ab565b604051808215151515815260200191505060405180910390f35b34801561087357600080fd5b5061087c6116ba565b6040518082815260200191505060405180910390f35b34801561089e57600080fd5b506108bd600480360381019080803590602001909291905050506116c0565b604051808273ffffffffffffffffffffffffffffffffffffffff1673ffffffffffffffffffffffffffffffffffffffff16815260200191505060405180910390f35b34801561090b57600080fd5b5061091461173e565b6040518082815260200191505060405180910390f35b34801561093657600080fd5b5061096b600480360381019080803573ffffffffffffffffffffffffffffffffffffffff169060200190929190505050611744565b6040518082815260200191505060405180910390f35b34801561098d57600080fd5b506109c2600480360381019080803573ffffffffffffffffffffffffffffffffffffffff16906020019092919050505061175c565b6040518082815260200191505060405180910390f35b3480156109e457600080fd5b506109ed6117e0565b6040518082815260200191505060405180910390f35b348015610a0f57600080fd5b50610a44600480360381019080803573ffffffffffffffffffffffffffffffffffffffff1690602001909291905050506117e6565b005b348015610a5257600080fd5b50610a93600480360381019080803573ffffffffffffffffffffffffffffffffffffffff169060200190929190803515159060200190929190505050611c33565b005b348015610aa157600080fd5b50610aaa611d6f565b6040518082815260200191505060405180910390f35b348015610acc57600080fd5b50610ad5611d75565b604051808273ffffffffffffffffffffffffffffffffffffffff1673ffffffffffffffffffffffffffffffffffffffff16815260200191505060405180910390f35b348015610b2357600080fd5b50610b2c611d9a565b6040518082815260200191505060405180910390f35b348015610b4e57600080fd5b50610bf3600480360381019080803573ffffffffffffffffffffffffffffffffffffffff169060200190929190803573ffffffffffffffffffffffffffffffffffffffff16906020019092919080359060200190929190803590602001908201803590602001908080601f0160208091040260200160405190810160405280939291908181526020018383808284378201915050505050509192919290505050611da0565b005b610c29600480360381019080803573ffffffffffffffffffffffffffffffffffffffff169060200190929190505050610d4b565b604051808215151515815260200191505060405180910390f35b348015610c4f57600080fd5b50610c58611dc8565b604051808260ff1660ff16815260200191505060405180910390f35b348015610c8057600080fd5b50610c89611dcd565b6040518082815260200191505060405180910390f35b348015610cab57600080fd5b50610d00600480360381019080803573ffffffffffffffffffffffffffffffffffffffff169060200190929190803573ffffffffffffffffffffffffffffffffffffffff169060200190929190505050611dd3565b604051808215151515815260200191505060405180910390f35b348015610d2657600080fd5b50610d2f611e67565b604051808260ff1660ff16815260200191505060405180910390f35b600080600d60009054906101000a900460ff16151515610d6a57600080fd5b6001600d60006101000a81548160ff021916908315150217905550349050610d928382611e6c565b600191506000600d60006101000a81548160ff02191690831515021790555050919050565b600281565b6000600e6000837bffffffffffffffffffffffffffffffffffffffffffffffffffffffff19167bffffffffffffffffffffffffffffffffffffffffffffffffffffffff1916815260200190815260200160002060009054906101000a900460ff169050919050565b6000610e2f82611f48565b1515610e3a57600080fd5b6010600083815260200190815260200160002060009054906101000a900473ffffffffffffffffffffffffffffffffffffffff169050919050565b6000610e80826116c0565b90508073ffffffffffffffffffffffffffffffffffffffff168373ffffffffffffffffffffffffffffffffffffffff1614151515610ebd57600080fd5b8073ffffffffffffffffffffffffffffffffffffffff163373ffffffffffffffffffffffffffffffffffffffff161480610efd5750610efc8133611dd3565b5b1515610f0857600080fd5b826010600084815260200190815260200160002060006101000a81548173ffffffffffffffffffffffffffffffffffffffff021916908373ffffffffffffffffffffffffffffffffffffffff160217905550818373ffffffffffffffffffffffffffffffffffffffff168273ffffffffffffffffffffffffffffffffffffffff167f8c5be1e5ebec7d5bd14f71427d1e84f3dd0314c0f7b2291e5b200ac8c7c3b92560405160405180910390a4505050565b600160009054906101000a900473ffffffffffffffffffffffffffffffffffffffff1681565b60006001905090565b60007f4261736963496e766573744d6f64756c65000000000000000000000000000000905090565b6000601580549050905090565b6000808214151515611098576040517f08c379a00000000000000000000000000000000000000000000000000000000081526004018080602001828103825260188152602001807f4772616e756c61726974792063616e206e6f742062652030000000000000000081525060200191505060405180910390fd5b7fd13c95c3e8cd875fc20a3da70637bcd9e053e0414035532577769470649507dc60025483604051808381526020018281526020019250505060405180910390a18160028190555060019050919050565b600a60009054906101000a900473ffffffffffffffffffffffffffffffffffffffff1681565b6111193382611fba565b151561112457600080fd5b600073ffffffffffffffffffffffffffffffffffffffff168273ffffffffffffffffffffffffffffffffffffffff161415151561116057600080fd5b61116a838261204f565b6111748382612152565b61117e828261230e565b808273ffffffffffffffffffffffffffffffffffffffff168473ffffffffffffffffffffffffffffffffffffffff167fddf252ad1be2c89b69c2b068fc378daa952ba7f163c4a11628f55a4df523b3ef60405160405180910390a4505050565b600181565b60006111ee8361175c565b821015156111fb57600080fd5b601360008473ffffffffffffffffffffffffffffffffffffffff1673ffffffffffffffffffffffffffffffffffffffff1681526020019081526020016000208281548110151561124757fe5b9060005260206000200154905092915050565b60075481565b60085481565b6000600354905090565b61128c8383836020604051908101604052806000815250611da0565b505050565b6000600554905090565b60008060009054906101000a900473ffffffffffffffffffffffffffffffffffffffff1673ffffffffffffffffffffffffffffffffffffffff163373ffffffffffffffffffffffffffffffffffffffff16141515611361576040517f08c379a000000000000000000000000000000000000000000000000000000000815260040180806020018281038252600e8152602001807f6973206e6f742070726f6475637400000000000000000000000000000000000081525060200191505060405180910390fd5b600073ffffffffffffffffffffffffffffffffffffffff168373ffffffffffffffffffffffffffffffffffffffff1614151515611406576040517f08c379a000000000000000000000000000000000000000000000000000000000815260040180806020018281038252601d8152602001807f5a65726f2061646472657373206973206e6f74207065726d697474656400000081525060200191505060405180910390fd5b42871015801561141557508686115b1515611489576040517f08c379a000000000000000000000000000000000000000000000000000000000815260040180806020018281038252601d8152602001807f4461746520706172616d657465727320617265206e6f742076616c696400000081525060200191505060405180910390fd5b600085111515611501576040517f08c379a000000000000000000000000000000000000000000000000000000000815260040180806020018281038252601c8152602001807f4361702073686f756c642062652067726561746572207468616e20300000000081525060200191505060405180910390fd5b86600681905550856007819055508460088190555082600a60006101000a81548173ffffffffffffffffffffffffffffffffffffffff021916908373ffffffffffffffffffffffffffffffffffffffff160217905550836009819055507f751f4a8b918543954909540580faa16627161dede05a02cfb029fe1707f67859828487878b8b604051808773ffffffffffffffffffffffffffffffffffffffff1673ffffffffffffffffffffffffffffffffffffffff1681526020018673ffffffffffffffffffffffffffffffffffffffff1673ffffffffffffffffffffffffffffffffffffffff168152602001858152602001848152602001838152602001828152602001965050505050505060405180910390a1600190509695505050505050565b600c6020528060005260406000206000915090508060000154908060010160009054906101000a900473ffffffffffffffffffffffffffffffffffffffff16908060020154908060030154905084565b600061167d611011565b8210151561168a57600080fd5b60158281548110151561169957fe5b90600052602060002001549050919050565b60006008546005541015905090565b60025481565b600080600f600084815260200190815260200160002060009054906101000a900473ffffffffffffffffffffffffffffffffffffffff169050600073ffffffffffffffffffffffffffffffffffffffff168173ffffffffffffffffffffffffffffffffffffffff161415151561173557600080fd5b80915050919050565b60055481565b600b6020528060005260406000206000915090505481565b60008073ffffffffffffffffffffffffffffffffffffffff168273ffffffffffffffffffffffffffffffffffffffff161415151561179957600080fd5b601160008373ffffffffffffffffffffffffffffffffffffffff1673ffffffffffffffffffffffffffffffffffffffff168152602001908152602001600020549050919050565b60065481565b600080600160009054906101000a900473ffffffffffffffffffffffffffffffffffffffff1673ffffffffffffffffffffffffffffffffffffffff1663f688cd18336040518263ffffffff167c0100000000000000000000000000000000000000000000000000000000028152600401808273ffffffffffffffffffffffffffffffffffffffff1673ffffffffffffffffffffffffffffffffffffffff168152602001915050602060405180830381600087803b1580156118a657600080fd5b505af11580156118ba573d6000803e3d6000fd5b505050506040513d60208110156118d057600080fd5b810190808051906020019092919050505015156001151514151561195c576040517f08c379a00000000000000000000000000000000000000000000000000000000081526004018080602001828103825260178152602001807f6d73672e73656e646572206973206e6f742061646d696e00000000000000000081525060200191505060405180910390fd5b600073ffffffffffffffffffffffffffffffffffffffff168373ffffffffffffffffffffffffffffffffffffffff1614151515611a01576040517f08c379a000000000000000000000000000000000000000000000000000000000815260040180806020018281038252600d8152602001807f697320616464726573732830290000000000000000000000000000000000000081525060200191505060405180910390fd5b8291508173ffffffffffffffffffffffffffffffffffffffff166370a08231306040518263ffffffff167c0100000000000000000000000000000000000000000000000000000000028152600401808273ffffffffffffffffffffffffffffffffffffffff1673ffffffffffffffffffffffffffffffffffffffff168152602001915050602060405180830381600087803b158015611a9f57600080fd5b505af1158015611ab3573d6000803e3d6000fd5b505050506040513d6020811015611ac957600080fd5b810190808051906020019092919050505090508173ffffffffffffffffffffffffffffffffffffffff1663a9059cbb33836040518363ffffffff167c0100000000000000000000000000000000000000000000000000000000028152600401808373ffffffffffffffffffffffffffffffffffffffff1673ffffffffffffffffffffffffffffffffffffffff16815260200182815260200192505050602060405180830381600087803b158015611b7f57600080fd5b505af1158015611b93573d6000803e3d6000fd5b505050506040513d6020811015611ba957600080fd5b81019080805190602001909291905050501515611c2e576040517f08c379a000000000000000000000000000000000000000000000000000000000815260040180806020018281038252601e8152602001807f666e3a7265636c61696d4552433230207472616e73666572206572726f72000081525060200191505060405180910390fd5b505050565b3373ffffffffffffffffffffffffffffffffffffffff168273ffffffffffffffffffffffffffffffffffffffff1614151515611c6e57600080fd5b80601260003373ffffffffffffffffffffffffffffffffffffffff1673ffffffffffffffffffffffffffffffffffffffff16815260200190815260200160002060008473ffffffffffffffffffffffffffffffffffffffff1673ffffffffffffffffffffffffffffffffffffffff16815260200190815260200160002060006101000a81548160ff0219169083151502179055508173ffffffffffffffffffffffffffffffffffffffff163373ffffffffffffffffffffffffffffffffffffffff167f17307eab39ab6107e8899845ad3d59bd9653f200f220920489ca2b5937696c3183604051808215151515815260200191505060405180910390a35050565b60095481565b6000809054906101000a900473ffffffffffffffffffffffffffffffffffffffff1681565b60045481565b611dab84848461110f565b611db7848484846123e5565b1515611dc257600080fd5b50505050565b600381565b60035481565b6000601260008473ffffffffffffffffffffffffffffffffffffffff1673ffffffffffffffffffffffffffffffffffffffff16815260200190815260200160002060008373ffffffffffffffffffffffffffffffffffffffff1673ffffffffffffffffffffffffffffffffffffffff16815260200190815260200160002060009054906101000a900460ff16905092915050565b600181565b6000611e788383612607565b819050611e90826005546128d790919063ffffffff16565b600581905550611ebe611ead6001846128f890919063ffffffff16565b6004546128d790919063ffffffff16565b600481905550611ece8382612936565b611ed6612a2e565b8273ffffffffffffffffffffffffffffffffffffffff163373ffffffffffffffffffffffffffffffffffffffff167fa5eb1cf2e5e2a197b50f7b9efc4b2b3daa5b4572dfdbe85803146aae61aed6c88484604051808381526020018281526020019250505060405180910390a3505050565b600080600f600084815260200190815260200160002060009054906101000a900473ffffffffffffffffffffffffffffffffffffffff169050600073ffffffffffffffffffffffffffffffffffffffff168173ffffffffffffffffffffffffffffffffffffffff161415915050919050565b600080611fc6836116c0565b90508073ffffffffffffffffffffffffffffffffffffffff168473ffffffffffffffffffffffffffffffffffffffff16148061203557508373ffffffffffffffffffffffffffffffffffffffff1661201d84610e24565b73ffffffffffffffffffffffffffffffffffffffff16145b8061204657506120458185611dd3565b5b91505092915050565b8173ffffffffffffffffffffffffffffffffffffffff1661206f826116c0565b73ffffffffffffffffffffffffffffffffffffffff1614151561209157600080fd5b600073ffffffffffffffffffffffffffffffffffffffff166010600083815260200190815260200160002060009054906101000a900473ffffffffffffffffffffffffffffffffffffffff1673ffffffffffffffffffffffffffffffffffffffff1614151561214e5760006010600083815260200190815260200160002060006101000a81548173ffffffffffffffffffffffffffffffffffffffff021916908373ffffffffffffffffffffffffffffffffffffffff1602179055505b5050565b60008060006121618585612bde565b601460008581526020019081526020016000205492506121cd6001601360008873ffffffffffffffffffffffffffffffffffffffff1673ffffffffffffffffffffffffffffffffffffffff16815260200190815260200160002080549050612d0d90919063ffffffff16565b9150601360008673ffffffffffffffffffffffffffffffffffffffff1673ffffffffffffffffffffffffffffffffffffffff1681526020019081526020016000208281548110151561221b57fe5b9060005260206000200154905080601360008773ffffffffffffffffffffffffffffffffffffffff1673ffffffffffffffffffffffffffffffffffffffff1681526020019081526020016000208481548110151561227557fe5b9060005260206000200181905550601360008673ffffffffffffffffffffffffffffffffffffffff1673ffffffffffffffffffffffffffffffffffffffff1681526020019081526020016000208054809190600190036122d591906130cb565b50600060146000868152602001908152602001600020819055508260146000838152602001908152602001600020819055505050505050565b600061231a8383612d2e565b601360008473ffffffffffffffffffffffffffffffffffffffff1673ffffffffffffffffffffffffffffffffffffffff168152602001908152602001600020805490509050601360008473ffffffffffffffffffffffffffffffffffffffff1673ffffffffffffffffffffffffffffffffffffffff168152602001908152602001600020829080600181540180825580915050906001820390600052602060002001600090919290919091505550806014600084815260200190815260200160002081905550505050565b6000806124078573ffffffffffffffffffffffffffffffffffffffff16612e88565b151561241657600191506125fe565b8473ffffffffffffffffffffffffffffffffffffffff1663150b7a02338887876040518563ffffffff167c0100000000000000000000000000000000000000000000000000000000028152600401808573ffffffffffffffffffffffffffffffffffffffff1673ffffffffffffffffffffffffffffffffffffffff1681526020018473ffffffffffffffffffffffffffffffffffffffff1673ffffffffffffffffffffffffffffffffffffffff16815260200183815260200180602001828103825283818151815260200191508051906020019080838360005b8381101561250b5780820151818401526020810190506124f0565b50505050905090810190601f1680156125385780820380516001836020036101000a031916815260200191505b5095505050505050602060405180830381600087803b15801561255a57600080fd5b505af115801561256e573d6000803e3d6000fd5b505050506040513d602081101561258457600080fd5b8101908080519060200190929190505050905063150b7a027c0100000000000000000000000000000000000000000000000000000000027bffffffffffffffffffffffffffffffffffffffffffffffffffffffff1916817bffffffffffffffffffffffffffffffffffffffffffffffffffffffff19161491505b50949350505050565b600073ffffffffffffffffffffffffffffffffffffffff168273ffffffffffffffffffffffffffffffffffffffff16141515156126d2576040517f08c379a00000000000000000000000000000000000000000000000000000000081526004018080602001828103825260248152602001807f42656e656669636961727920616464726573732073686f756c64206e6f74206281526020017f652030780000000000000000000000000000000000000000000000000000000081525060400191505060405180910390fd5b60008114151515612771576040517f08c379a00000000000000000000000000000000000000000000000000000000081526004018080602001828103825260288152602001807f416d6f756e7420696e7665737465642073686f756c64206e6f7420626520657181526020017f75616c20746f203000000000000000000000000000000000000000000000000081525060400191505060405180910390fd5b600854612789826004546128d790919063ffffffff16565b11151515612825576040517f08c379a00000000000000000000000000000000000000000000000000000000081526004018080602001828103825260278152602001807f496e766573746d656e74206d6f7265207468616e20636170206973206e6f742081526020017f616c6c6f7765640000000000000000000000000000000000000000000000000081525060400191505060405180910390fd5b600654421015801561283957506007544211155b15156128d3576040517f08c379a00000000000000000000000000000000000000000000000000000000081526004018080602001828103825260228152602001807f4f66666572696e6720697320636c6f7365642f4e6f742079657420737461727481526020017f656400000000000000000000000000000000000000000000000000000000000081525060400191505060405180910390fd5b5050565b60008082840190508381101515156128ee57600080fd5b8091505092915050565b600080600084141561290d576000915061292f565b828402905082848281151561291e57fe5b0414151561292b57600080fd5b8091505b5092915050565b6000600b60008473ffffffffffffffffffffffffffffffffffffffff1673ffffffffffffffffffffffffffffffffffffffff16815260200190815260200160002054141561298b576001600354016003819055505b6129dd81600b60008573ffffffffffffffffffffffffffffffffffffffff1673ffffffffffffffffffffffffffffffffffffffff168152602001908152602001600020546128d790919063ffffffff16565b600b60008473ffffffffffffffffffffffffffffffffffffffff1673ffffffffffffffffffffffffffffffffffffffff16815260200190815260200160002081905550612a2a8282612e9b565b5050565b60008060009054906101000a900473ffffffffffffffffffffffffffffffffffffffff1673ffffffffffffffffffffffffffffffffffffffff166363b46bde60036040518263ffffffff167c0100000000000000000000000000000000000000000000000000000000028152600401808260ff1660ff168152602001915050602060405180830381600087803b158015612ac757600080fd5b505af1158015612adb573d6000803e3d6000fd5b505050506040513d6020811015612af157600080fd5b810190808051906020019092919050505090508073ffffffffffffffffffffffffffffffffffffffff166303f9c793336040518263ffffffff167c0100000000000000000000000000000000000000000000000000000000028152600401808273ffffffffffffffffffffffffffffffffffffffff1673ffffffffffffffffffffffffffffffffffffffff168152602001915050602060405180830381600087803b158015612b9f57600080fd5b505af1158015612bb3573d6000803e3d6000fd5b505050506040513d6020811015612bc957600080fd5b81019080805190602001909291905050505050565b8173ffffffffffffffffffffffffffffffffffffffff16612bfe826116c0565b73ffffffffffffffffffffffffffffffffffffffff16141515612c2057600080fd5b612c736001601160008573ffffffffffffffffffffffffffffffffffffffff1673ffffffffffffffffffffffffffffffffffffffff16815260200190815260200160002054612d0d90919063ffffffff16565b601160008473ffffffffffffffffffffffffffffffffffffffff1673ffffffffffffffffffffffffffffffffffffffff168152602001908152602001600020819055506000600f600083815260200190815260200160002060006101000a81548173ffffffffffffffffffffffffffffffffffffffff021916908373ffffffffffffffffffffffffffffffffffffffff1602179055505050565b600080838311151515612d1f57600080fd5b82840390508091505092915050565b600073ffffffffffffffffffffffffffffffffffffffff16600f600083815260200190815260200160002060009054906101000a900473ffffffffffffffffffffffffffffffffffffffff1673ffffffffffffffffffffffffffffffffffffffff16141515612d9c57600080fd5b81600f600083815260200190815260200160002060006101000a81548173ffffffffffffffffffffffffffffffffffffffff021916908373ffffffffffffffffffffffffffffffffffffffff160217905550612e416001601160008573ffffffffffffffffffffffffffffffffffffffff1673ffffffffffffffffffffffffffffffffffffffff168152602001908152602001600020546128d790919063ffffffff16565b601160008473ffffffffffffffffffffffffffffffffffffffff1673ffffffffffffffffffffffffffffffffffffffff168152602001908152602001600020819055505050565b600080823b905060008111915050919050565b6000612ea56130f7565b6001612eaf611011565b019150612ebc8483612fce565b6080604051908101604052808381526020018573ffffffffffffffffffffffffffffffffffffffff16815260200184815260200142815250905080600c60008481526020019081526020016000206000820151816000015560208201518160010160006101000a81548173ffffffffffffffffffffffffffffffffffffffff021916908373ffffffffffffffffffffffffffffffffffffffff16021790555060408201518160020155606082015181600301559050508373ffffffffffffffffffffffffffffffffffffffff167fdaf6133cf950f107c06abec62e95e039240111af248cf1d6cd814b0f0229b47e8385604051808381526020018281526020019250505060405180910390a250505050565b612fd88282613025565b601580549050601660008381526020019081526020016000208190555060158190806001815401808255809150509060018203906000526020600020016000909192909190915055505050565b600073ffffffffffffffffffffffffffffffffffffffff168273ffffffffffffffffffffffffffffffffffffffff161415151561306157600080fd5b61306b828261230e565b808273ffffffffffffffffffffffffffffffffffffffff16600073ffffffffffffffffffffffffffffffffffffffff167fddf252ad1be2c89b69c2b068fc378daa952ba7f163c4a11628f55a4df523b3ef60405160405180910390a45050565b8154818355818111156130f2578183600052602060002091820191016130f19190613136565b5b505050565b60806040519081016040528060008152602001600073ffffffffffffffffffffffffffffffffffffffff16815260200160008152602001600081525090565b61315891905b8082111561315457600081600090555060010161313c565b5090565b905600a165627a7a72305820b487a2d4c80b8065aa3ce5f73674f0367edbeee70b2e5ac5c778c25f7910406e0029",
  "source": "pragma solidity >=0.4.24;\n\nimport \"../../interface/InterfaceInvestModule.sol\";\nimport \"../../library/ReentrancyGuard.sol\";\nimport \"../../ERC721/ERC721.sol\";\nimport \"../../ERC721/ERC721Enumerable.sol\";\nimport \"../../interface/InterfaceDivideModule.sol\";\n/**\n* @dev    (   )\n*\n* \n* \n* \n */\n\ncontract BasicInvestModule is InterfaceInvestModule, ReentrancyGuard, ERC721, ERC721Enumerable {\n    using SafeMath for uint256;\n\n    constructor (address _product, address _registry) public\n    InterfaceModule(_product, _registry)\n    {\n        \n    }\n    modifier checkGranularity(uint256 _amount) {\n        require(_amount % granularity == 0, \"Unable to modify token balances at this granularity\");\n        _;\n    }\n    \n\n    function changeGranularity(uint256 _granularity) public returns(bool) {\n        \n        require(_granularity != 0, \"Granularity can not be 0\");\n        \n        emit LogGranularityChanged(granularity, _granularity);\n        \n        granularity = _granularity;\n\n        return true;\n    }\n    \n    //TODO :     \n    function configure(\n        uint256 _startTime,\n        uint256 _endTime,\n        uint256 _cap,\n        uint256 _max_investors,\n        address _fundsReceiver,\n        address _from\n    )\n    public\n    onlyProduct\n    returns (bool)\n    {\n        require(_fundsReceiver != address(0), \"Zero address is not permitted\");\n        require(_startTime >= now && _endTime > _startTime, \"Date parameters are not valid\");\n        require(_cap > 0, \"Cap should be greater than 0\");\n        \n        startTime = _startTime;\n        endTime = _endTime;\n        cap = _cap;\n        fundsWallet = _fundsReceiver;\n        max_investors = _max_investors;\n        \n        emit RegisterdBasicInvestConfig(_from, _fundsReceiver, _cap,  _max_investors, _startTime,  _endTime);\n        \n        return true;\n\n    }\n\n    function () external payable {\n        investProduct(msg.sender);\n    }\n\n    function investProduct(address _investor) public payable nonReentrant returns(bool) {\n        \n        uint256 klayAmount = msg.value;\n\n        _processTx(_investor, klayAmount);\n\n        return true;\n    }\n\n    function _processTx(address _beneficiary, uint256 _investedAmount) internal {\n\n        _preValidateInvest(_beneficiary, _investedAmount);\n        // calculate token amount to be created\n        uint256 klays = _investedAmount;\n\n        // update state\n        fundsRaised = fundsRaised.add(_investedAmount);\n        \n        productSold = productSold.add(_investedAmount.mul(rate));\n\n        _processInvest(_beneficiary, klays);\n\n        _forwardFunds();\n\n        emit ProductInvest(msg.sender, _beneficiary, _investedAmount, klays);\n\n    }\n\n    function _preValidateInvest(address _beneficiary, uint256 _investedAmount) internal view {\n        require(_beneficiary != address(0), \"Beneficiary address should not be 0x\");\n        require(_investedAmount != 0, \"Amount invested should not be equal to 0\");\n        require(productSold.add(_investedAmount) <= cap, \"Investment more than cap is not allowed\");\n        require(now >= startTime && now <= endTime, \"Offering is closed/Not yet started\");\n    }\n\n    /**\n    * @notice Executed when a purchase has been validated and is ready to be executed. Not necessarily emits/sends tokens.\n    * @param _beneficiary Address receiving the tokens\n    * @param _tokenAmount Number of tokens to be purchased\n    */\n    function _processInvest(address _beneficiary, uint256 _tokenAmount) internal {\n        \n        if (investors[_beneficiary] == 0) {\n            investorCount = investorCount + 1;\n        }\n    \n        investors[_beneficiary] = investors[_beneficiary].add(_tokenAmount);\n\n        _deliverProductStock(_beneficiary, _tokenAmount);\n    }\n\n    function _forwardFunds() internal {\n        \n        address divideModule = InterfaceProduct(sigStockProduct).module(DIVIDE_KEY);\n        \n        InterfaceDivideModule(divideModule).invest(msg.sender);\n\n        // InterfaceDivideModule(divideModule).invest2(msg.sender, msg.value);\n\n        \n    }\n    \n    // @TODO : ERC721       \n    function _deliverProductStock(address _beneficiary, uint256 _tokenAmount) internal {\n            \n            uint256 tokenId = totalSupply() + 1;\n\n            _mint(_beneficiary, tokenId);\n            \n            InvestData memory newData = InvestData(tokenId, _beneficiary, _tokenAmount, block.timestamp);\n\n            investList[tokenId] = newData;\n\n            emit DeliveredStock(tokenId, _beneficiary, _tokenAmount);\n\n    }\n\n    function getNumberInvestors() public view returns (uint256) {\n        return investorCount;\n    }\n\n    function getRaisedKlay() public view returns (uint256) {       \n        return fundsRaised;\n    }\n\n    function capReached() public view returns (bool) {\n        return fundsRaised >= cap;\n    }\n\n    function getType() public view returns(uint8) {\n        return 1;\n    }\n    \n    function getName() public view returns(bytes32) {\n        return \"BasicInvestModule\";\n    }\n}",
  "sourcePath": "/Users/berk/side_pj/5nodeProject/smtContract/contracts/modules/basic/BasicInvestModule.sol",
  "compiler": {
    "name": "solc",
    "version": "0.4.24+commit.e67f0147.Emscripten.clang"
  },
  "schemaVersion": "3.0.6",
  "updatedAt": "2019-05-25T07:53:18.366Z",
  "devdoc": {
    "methods": {
      "approve(address,uint256)": {
        "details": "Approves another address to transfer the given token ID The zero address indicates there is no approved address. There can only be one approved address per token at a given time. Can only be called by the token owner or an approved operator.",
        "params": {
          "to": "address to be approved for the given token ID",
          "tokenId": "uint256 ID of the token to be approved"
        }
      },
      "balanceOf(address)": {
        "details": "Gets the balance of the specified address",
        "params": {
          "owner": "address to query the balance of"
        },
        "return": "uint256 representing the amount owned by the passed address"
      },
      "getApproved(uint256)": {
        "details": "Gets the approved address for a token ID, or zero if no address set Reverts if the token ID does not exist.",
        "params": {
          "tokenId": "uint256 ID of the token to query the approval of"
        },
        "return": "address currently approved for the given token ID"
      },
      "isApprovedForAll(address,address)": {
        "details": "Tells whether an operator is approved by a given owner",
        "params": {
          "operator": "operator address which you want to query the approval of",
          "owner": "owner address which you want to query the approval of"
        },
        "return": "bool whether the given operator is approved by the given owner"
      },
      "ownerOf(uint256)": {
        "details": "Gets the owner of the specified token ID",
        "params": {
          "tokenId": "uint256 ID of the token to query the owner of"
        },
        "return": "owner address currently marked as the owner of the given token ID"
      },
      "safeTransferFrom(address,address,uint256)": {
        "details": "Safely transfers the ownership of a given token ID to another address If the target address is a contract, it must implement `onERC721Received`, which is called upon a safe transfer, and return the magic value `bytes4(keccak256(\"onERC721Received(address,address,uint256,bytes)\"))`; otherwise, the transfer is reverted.   * Requires the msg sender to be the owner, approved, or operator",
        "params": {
          "from": "current owner of the token",
          "to": "address to receive the ownership of the given token ID",
          "tokenId": "uint256 ID of the token to be transferred"
        }
      },
      "safeTransferFrom(address,address,uint256,bytes)": {
        "details": "Safely transfers the ownership of a given token ID to another address If the target address is a contract, it must implement `onERC721Received`, which is called upon a safe transfer, and return the magic value `bytes4(keccak256(\"onERC721Received(address,address,uint256,bytes)\"))`; otherwise, the transfer is reverted. Requires the msg sender to be the owner, approved, or operator",
        "params": {
          "_data": "bytes data to send along with a safe transfer check",
          "from": "current owner of the token",
          "to": "address to receive the ownership of the given token ID",
          "tokenId": "uint256 ID of the token to be transferred"
        }
      },
      "setApprovalForAll(address,bool)": {
        "details": "Sets or unsets the approval of a given operator An operator is allowed to transfer all tokens of the sender on their behalf",
        "params": {
          "approved": "representing the status of the approval to be set",
          "to": "operator address to set the approval"
        }
      },
      "supportsInterface(bytes4)": {
        "details": "implement supportsInterface(bytes4) using a lookup table"
      },
      "tokenByIndex(uint256)": {
        "details": "Gets the token ID at a given index of all the tokens in this contract Reverts if the index is greater or equal to the total number of tokens",
        "params": {
          "index": "uint256 representing the index to be accessed of the tokens list"
        },
        "return": "uint256 token ID at the given index of the tokens list"
      },
      "tokenOfOwnerByIndex(address,uint256)": {
        "details": "Gets the token ID at a given index of the tokens list of the requested owner",
        "params": {
          "index": "uint256 representing the index to be accessed of the requested tokens list",
          "owner": "address owning the tokens list to be accessed"
        },
        "return": "uint256 token ID at the given index of the tokens list owned by the requested address"
      },
      "totalSupply()": {
        "details": "Gets the total amount of tokens stored by the contract",
        "return": "uint256 representing the total amount of tokens"
      },
      "transferFrom(address,address,uint256)": {
        "details": "Transfers the ownership of a given token ID to another address Usage of this method is discouraged, use `safeTransferFrom` whenever possible Requires the msg sender to be the owner, approved, or operator",
        "params": {
          "from": "current owner of the token",
          "to": "address to receive the ownership of the given token ID",
          "tokenId": "uint256 ID of the token to be transferred"
        }
      }
    }
  },
  "userdoc": {
    "methods": {}
  }
}