{
  "contractName": "BasicDivideModule",
  "abi": [
    {
      "constant": true,
      "inputs": [],
      "name": "PURCHASE_KEY",
      "outputs": [
        {
          "name": "",
          "type": "uint8"
        }
      ],
      "payable": false,
      "stateMutability": "view",
      "type": "function"
    },
    {
      "constant": true,
      "inputs": [],
      "name": "sigStockRegistry",
      "outputs": [
        {
          "name": "",
          "type": "address"
        }
      ],
      "payable": false,
      "stateMutability": "view",
      "type": "function"
    },
    {
      "constant": true,
      "inputs": [],
      "name": "Wallet",
      "outputs": [
        {
          "name": "",
          "type": "address"
        }
      ],
      "payable": false,
      "stateMutability": "view",
      "type": "function"
    },
    {
      "constant": true,
      "inputs": [
        {
          "name": "",
          "type": "address"
        }
      ],
      "name": "purchasedForInvestor",
      "outputs": [
        {
          "name": "",
          "type": "uint256"
        }
      ],
      "payable": false,
      "stateMutability": "view",
      "type": "function"
    },
    {
      "constant": true,
      "inputs": [],
      "name": "maxDivideValue",
      "outputs": [
        {
          "name": "",
          "type": "uint256"
        }
      ],
      "payable": false,
      "stateMutability": "view",
      "type": "function"
    },
    {
      "constant": true,
      "inputs": [],
      "name": "creatorRate",
      "outputs": [
        {
          "name": "",
          "type": "uint256"
        }
      ],
      "payable": false,
      "stateMutability": "view",
      "type": "function"
    },
    {
      "constant": true,
      "inputs": [
        {
          "name": "",
          "type": "address"
        }
      ],
      "name": "purchased",
      "outputs": [
        {
          "name": "",
          "type": "uint256"
        }
      ],
      "payable": false,
      "stateMutability": "view",
      "type": "function"
    },
    {
      "constant": true,
      "inputs": [
        {
          "name": "",
          "type": "address"
        }
      ],
      "name": "invested",
      "outputs": [
        {
          "name": "",
          "type": "uint256"
        }
      ],
      "payable": false,
      "stateMutability": "view",
      "type": "function"
    },
    {
      "constant": false,
      "inputs": [
        {
          "name": "_tokenContract",
          "type": "address"
        }
      ],
      "name": "reclaimERC20",
      "outputs": [],
      "payable": false,
      "stateMutability": "nonpayable",
      "type": "function"
    },
    {
      "constant": true,
      "inputs": [],
      "name": "sigStockProduct",
      "outputs": [
        {
          "name": "",
          "type": "address"
        }
      ],
      "payable": false,
      "stateMutability": "view",
      "type": "function"
    },
    {
      "constant": true,
      "inputs": [],
      "name": "DIVIDE_KEY",
      "outputs": [
        {
          "name": "",
          "type": "uint8"
        }
      ],
      "payable": false,
      "stateMutability": "view",
      "type": "function"
    },
    {
      "constant": true,
      "inputs": [],
      "name": "INVEST_KEY",
      "outputs": [
        {
          "name": "",
          "type": "uint8"
        }
      ],
      "payable": false,
      "stateMutability": "view",
      "type": "function"
    },
    {
      "inputs": [
        {
          "name": "_product",
          "type": "address"
        },
        {
          "name": "_registry",
          "type": "address"
        }
      ],
      "payable": false,
      "stateMutability": "nonpayable",
      "type": "constructor"
    },
    {
      "anonymous": false,
      "inputs": [
        {
          "indexed": false,
          "name": "_from",
          "type": "address"
        },
        {
          "indexed": false,
          "name": "_klayAmount",
          "type": "uint256"
        },
        {
          "indexed": false,
          "name": "_timestamp",
          "type": "uint256"
        }
      ],
      "name": "Invested",
      "type": "event"
    },
    {
      "anonymous": false,
      "inputs": [
        {
          "indexed": false,
          "name": "_from",
          "type": "address"
        },
        {
          "indexed": false,
          "name": "_klayAmount",
          "type": "uint256"
        },
        {
          "indexed": false,
          "name": "_timestamp",
          "type": "uint256"
        }
      ],
      "name": "Purchased",
      "type": "event"
    },
    {
      "anonymous": false,
      "inputs": [
        {
          "indexed": false,
          "name": "_from",
          "type": "address"
        },
        {
          "indexed": false,
          "name": "_klay",
          "type": "uint256"
        }
      ],
      "name": "WithdrawedInvestedKLAYFromCreator",
      "type": "event"
    },
    {
      "anonymous": false,
      "inputs": [
        {
          "indexed": false,
          "name": "_from",
          "type": "address"
        },
        {
          "indexed": false,
          "name": "_klay",
          "type": "uint256"
        }
      ],
      "name": "WithdrawedPurchasedKLAYFromCreator",
      "type": "event"
    },
    {
      "anonymous": false,
      "inputs": [
        {
          "indexed": false,
          "name": "_from",
          "type": "address"
        },
        {
          "indexed": false,
          "name": "_klay",
          "type": "uint256"
        }
      ],
      "name": "WithdrawedPurchasedKLAYFromInvestor",
      "type": "event"
    },
    {
      "anonymous": false,
      "inputs": [
        {
          "indexed": false,
          "name": "_from",
          "type": "address"
        },
        {
          "indexed": false,
          "name": "_timestamp",
          "type": "uint256"
        }
      ],
      "name": "IsCleared",
      "type": "event"
    },
    {
      "constant": false,
      "inputs": [],
      "name": "clearedMission",
      "outputs": [
        {
          "name": "",
          "type": "bool"
        }
      ],
      "payable": false,
      "stateMutability": "nonpayable",
      "type": "function"
    },
    {
      "constant": false,
      "inputs": [
        {
          "name": "_from",
          "type": "address"
        }
      ],
      "name": "invest",
      "outputs": [
        {
          "name": "",
          "type": "bool"
        }
      ],
      "payable": true,
      "stateMutability": "payable",
      "type": "function"
    },
    {
      "constant": false,
      "inputs": [
        {
          "name": "_from",
          "type": "address"
        },
        {
          "name": "_value",
          "type": "uint256"
        }
      ],
      "name": "invest2",
      "outputs": [
        {
          "name": "",
          "type": "bool"
        }
      ],
      "payable": true,
      "stateMutability": "payable",
      "type": "function"
    },
    {
      "constant": false,
      "inputs": [
        {
          "name": "_from",
          "type": "address"
        }
      ],
      "name": "purchase",
      "outputs": [
        {
          "name": "",
          "type": "bool"
        }
      ],
      "payable": true,
      "stateMutability": "payable",
      "type": "function"
    },
    {
      "constant": false,
      "inputs": [],
      "name": "withdrawInvestedKLAYFromCreator",
      "outputs": [
        {
          "name": "",
          "type": "bool"
        }
      ],
      "payable": true,
      "stateMutability": "payable",
      "type": "function"
    },
    {
      "constant": false,
      "inputs": [],
      "name": "withdrawPurchasedKLAYFromCreator",
      "outputs": [
        {
          "name": "",
          "type": "bool"
        }
      ],
      "payable": true,
      "stateMutability": "payable",
      "type": "function"
    },
    {
      "constant": false,
      "inputs": [],
      "name": "withdrawPurchasedKLAYFromInvestor",
      "outputs": [
        {
          "name": "",
          "type": "bool"
        }
      ],
      "payable": true,
      "stateMutability": "payable",
      "type": "function"
    },
    {
      "constant": true,
      "inputs": [],
      "name": "getType",
      "outputs": [
        {
          "name": "",
          "type": "uint8"
        }
      ],
      "payable": false,
      "stateMutability": "view",
      "type": "function"
    },
    {
      "constant": true,
      "inputs": [],
      "name": "getName",
      "outputs": [
        {
          "name": "",
          "type": "bytes32"
        }
      ],
      "payable": false,
      "stateMutability": "view",
      "type": "function"
    }
  ],
  "bytecode": "0x60806040526000600160146101000a81548160ff02191690831515021790555030600260006101000a81548173ffffffffffffffffffffffffffffffffffffffff021916908373ffffffffffffffffffffffffffffffffffffffff1602179055506000600655600060075534801561007657600080fd5b50604051604080620021f583398101806040528101908080519060200190929190805190602001909291905050508181816000806101000a81548173ffffffffffffffffffffffffffffffffffffffff021916908373ffffffffffffffffffffffffffffffffffffffff16021790555080600160006101000a81548173ffffffffffffffffffffffffffffffffffffffff021916908373ffffffffffffffffffffffffffffffffffffffff16021790555050506000809054906101000a900473ffffffffffffffffffffffffffffffffffffffff1673ffffffffffffffffffffffffffffffffffffffff16634baa3faa6040518163ffffffff167c0100000000000000000000000000000000000000000000000000000000028152600401602060405180830381600087803b1580156101ae57600080fd5b505af11580156101c2573d6000803e3d6000fd5b505050506040513d60208110156101d857600080fd5b81019080805190602001909291905050506006819055506000809054906101000a900473ffffffffffffffffffffffffffffffffffffffff1673ffffffffffffffffffffffffffffffffffffffff16631ac52f6f6040518163ffffffff167c0100000000000000000000000000000000000000000000000000000000028152600401602060405180830381600087803b15801561027457600080fd5b505af1158015610288573d6000803e3d6000fd5b505050506040513d602081101561029e57600080fd5b81019080805190602001909291905050506007819055505050611f2e80620002c76000396000f30060806040526004361061011d576000357c0100000000000000000000000000000000000000000000000000000000900463ffffffff16806301d84c421461012257806303f9c793146101535780630cc72f07146101a15780630e1b39fb146101f857806315dae03e1461024f57806317d7de7c1461028057806318850f10146102b3578063197486f91461030a5780631ac52f6f1461032c57806325b31a97146103575780632aebd3c1146103a55780634baa3faa146103c7578063522fe98e146103f257806366b3f6bf146104495780638905fd4f146104a05780639c108a05146104e3578063b363eade1461053b578063d3efbdc314610592578063e4c3d01f146105c3578063f6d6207f146105e5578063ff91a68d14610614575b600080fd5b34801561012e57600080fd5b50610137610645565b604051808260ff1660ff16815260200191505060405180910390f35b610187600480360381019080803573ffffffffffffffffffffffffffffffffffffffff16906020019092919050505061064a565b604051808215151515815260200191505060405180910390f35b3480156101ad57600080fd5b506101b66107a0565b604051808273ffffffffffffffffffffffffffffffffffffffff1673ffffffffffffffffffffffffffffffffffffffff16815260200191505060405180910390f35b34801561020457600080fd5b5061020d6107c6565b604051808273ffffffffffffffffffffffffffffffffffffffff1673ffffffffffffffffffffffffffffffffffffffff16815260200191505060405180910390f35b34801561025b57600080fd5b506102646107ec565b604051808260ff1660ff16815260200191505060405180910390f35b34801561028c57600080fd5b506102956107f5565b60405180826000191660001916815260200191505060405180910390f35b3480156102bf57600080fd5b506102f4600480360381019080803573ffffffffffffffffffffffffffffffffffffffff16906020019092919050505061081d565b6040518082815260200191505060405180910390f35b610312610835565b604051808215151515815260200191505060405180910390f35b34801561033857600080fd5b50610341610daf565b6040518082815260200191505060405180910390f35b61038b600480360381019080803573ffffffffffffffffffffffffffffffffffffffff169060200190929190505050610db5565b604051808215151515815260200191505060405180910390f35b6103ad610ea2565b604051808215151515815260200191505060405180910390f35b3480156103d357600080fd5b506103dc611354565b6040518082815260200191505060405180910390f35b3480156103fe57600080fd5b50610433600480360381019080803573ffffffffffffffffffffffffffffffffffffffff16906020019092919050505061135a565b6040518082815260200191505060405180910390f35b34801561045557600080fd5b5061048a600480360381019080803573ffffffffffffffffffffffffffffffffffffffff169060200190929190505050611372565b6040518082815260200191505060405180910390f35b3480156104ac57600080fd5b506104e1600480360381019080803573ffffffffffffffffffffffffffffffffffffffff16906020019092919050505061138a565b005b610521600480360381019080803573ffffffffffffffffffffffffffffffffffffffff169060200190929190803590602001909291905050506117d7565b604051808215151515815260200191505060405180910390f35b34801561054757600080fd5b5061055061192e565b604051808273ffffffffffffffffffffffffffffffffffffffff1673ffffffffffffffffffffffffffffffffffffffff16815260200191505060405180910390f35b34801561059e57600080fd5b506105a7611953565b604051808260ff1660ff16815260200191505060405180910390f35b6105cb611958565b604051808215151515815260200191505060405180910390f35b3480156105f157600080fd5b506105fa611ccd565b604051808215151515815260200191505060405180910390f35b34801561062057600080fd5b50610629611ece565b604051808260ff1660ff16815260200191505060405180910390f35b600281565b60003460036000600260009054906101000a900473ffffffffffffffffffffffffffffffffffffffff1673ffffffffffffffffffffffffffffffffffffffff1673ffffffffffffffffffffffffffffffffffffffff16815260200190815260200160002060008282540192505081905550600260009054906101000a900473ffffffffffffffffffffffffffffffffffffffff1673ffffffffffffffffffffffffffffffffffffffff166108fc349081150290604051600060405180830381858888f19350505050158015610723573d6000803e3d6000fd5b507f9e9d071824fd57d062ca63fd8b786d8da48a6807eebbcb2d83f9e8d21398e28c823442604051808473ffffffffffffffffffffffffffffffffffffffff1673ffffffffffffffffffffffffffffffffffffffff168152602001838152602001828152602001935050505060405180910390a160019050919050565b600160009054906101000a900473ffffffffffffffffffffffffffffffffffffffff1681565b600260009054906101000a900473ffffffffffffffffffffffffffffffffffffffff1681565b60006003905090565b60007f42617369634469766964654d6f64756c65000000000000000000000000000000905090565b60056020528060005260406000206000915090505481565b6000806000806000806000806006541115156108b9576040517f08c379a00000000000000000000000000000000000000000000000000000000081526004018080602001828103825260128152602001807f6973206e6f7420696e697469616c697a6564000000000000000000000000000081525060200191505060405180910390fd5b600060046000600260009054906101000a900473ffffffffffffffffffffffffffffffffffffffff1673ffffffffffffffffffffffffffffffffffffffff1673ffffffffffffffffffffffffffffffffffffffff16815260200190815260200160002054141515610992576040517f08c379a000000000000000000000000000000000000000000000000000000000815260040180806020018281038252601f8152602001807f6973206e6f7420636f6d706c657465642063726561746f72277320737465700081525060200191505060405180910390fd5b6109a760065487611ed390919063ffffffff16565b678ac7230489e800000294506000809054906101000a900473ffffffffffffffffffffffffffffffffffffffff1673ffffffffffffffffffffffffffffffffffffffff166363b46bde60016040518263ffffffff167c0100000000000000000000000000000000000000000000000000000000028152600401808260ff1660ff168152602001915050602060405180830381600087803b158015610a4a57600080fd5b505af1158015610a5e573d6000803e3d6000fd5b505050506040513d6020811015610a7457600080fd5b810190808051906020019092919050505093508373ffffffffffffffffffffffffffffffffffffffff1663355274ea6040518163ffffffff167c0100000000000000000000000000000000000000000000000000000000028152600401602060405180830381600087803b158015610aeb57600080fd5b505af1158015610aff573d6000803e3d6000fd5b505050506040513d6020811015610b1557600080fd5b810190808051906020019092919050505092508373ffffffffffffffffffffffffffffffffffffffff16636f7bc9be336040518263ffffffff167c0100000000000000000000000000000000000000000000000000000000028152600401808273ffffffffffffffffffffffffffffffffffffffff1673ffffffffffffffffffffffffffffffffffffffff168152602001915050602060405180830381600087803b158015610bc357600080fd5b505af1158015610bd7573d6000803e3d6000fd5b505050506040513d6020811015610bed57600080fd5b81019080805190602001909291905050509150610c138383611ed390919063ffffffff16565b95508560056000600260009054906101000a900473ffffffffffffffffffffffffffffffffffffffff1673ffffffffffffffffffffffffffffffffffffffff1673ffffffffffffffffffffffffffffffffffffffff16815260200190815260200160002054029050610cef8160056000600260009054906101000a900473ffffffffffffffffffffffffffffffffffffffff1673ffffffffffffffffffffffffffffffffffffffff1673ffffffffffffffffffffffffffffffffffffffff16815260200190815260200160002054611ee990919063ffffffff16565b503373ffffffffffffffffffffffffffffffffffffffff166108fc829081150290604051600060405180830381858888f19350505050158015610d36573d6000803e3d6000fd5b507f2d8ff01e6fda30580e29ae3a57573e6f08b520fd4f306a30f0a57fe1f405a2193386604051808373ffffffffffffffffffffffffffffffffffffffff1673ffffffffffffffffffffffffffffffffffffffff1681526020018281526020019250505060405180910390a16001965050505050505090565b60075481565b60003460046000600260009054906101000a900473ffffffffffffffffffffffffffffffffffffffff1673ffffffffffffffffffffffffffffffffffffffff1673ffffffffffffffffffffffffffffffffffffffff168152602001908152602001600020600082825401925050819055507ff761777482b4b40d2bcc0d050cfba6829900a2d8b3484bd0244ec0feeb3db504823442604051808473ffffffffffffffffffffffffffffffffffffffff1673ffffffffffffffffffffffffffffffffffffffff168152602001838152602001828152602001935050505060405180910390a160019050919050565b60008060008060056000600260009054906101000a900473ffffffffffffffffffffffffffffffffffffffff1673ffffffffffffffffffffffffffffffffffffffff1673ffffffffffffffffffffffffffffffffffffffff16815260200190815260200160002054141515610f7f576040517f08c379a00000000000000000000000000000000000000000000000000000000081526004018080602001828103825260208152602001807f6973206e6f7420636f6d706c6574656420696e766573746f722773207374657081525060200191505060405180910390fd5b6000600654111515610ff9576040517f08c379a00000000000000000000000000000000000000000000000000000000081526004018080602001828103825260128152602001807f6973206e6f7420696e697469616c697a6564000000000000000000000000000081525060200191505060405180910390fd5b60075460046000600260009054906101000a900473ffffffffffffffffffffffffffffffffffffffff1673ffffffffffffffffffffffffffffffffffffffff1673ffffffffffffffffffffffffffffffffffffffff16815260200190815260200160002054101515156110d4576040517f08c379a00000000000000000000000000000000000000000000000000000000081526004018080602001828103825260178152602001807f686173206e6f742073756666696369656e74206b6c617900000000000000000081525060200191505060405180910390fd5b678ac7230489e800006006548115156110e957fe5b049150816007540290508060046000600260009054906101000a900473ffffffffffffffffffffffffffffffffffffffff1673ffffffffffffffffffffffffffffffffffffffff1673ffffffffffffffffffffffffffffffffffffffff1681526020019081526020016000206000828254039250508190555060046000600260009054906101000a900473ffffffffffffffffffffffffffffffffffffffff1673ffffffffffffffffffffffffffffffffffffffff1673ffffffffffffffffffffffffffffffffffffffff1681526020019081526020016000205460056000600260009054906101000a900473ffffffffffffffffffffffffffffffffffffffff1673ffffffffffffffffffffffffffffffffffffffff1673ffffffffffffffffffffffffffffffffffffffff16815260200190815260200160002060008282540192505081905550600060046000600260009054906101000a900473ffffffffffffffffffffffffffffffffffffffff1673ffffffffffffffffffffffffffffffffffffffff1673ffffffffffffffffffffffffffffffffffffffff168152602001908152602001600020819055503373ffffffffffffffffffffffffffffffffffffffff166108fc829081150290604051600060405180830381858888f193505050501580156112df573d6000803e3d6000fd5b507fd84e235972f233a505f4619258d86cb0ebcf5cc33ab11bce64a5117f989cea053382604051808373ffffffffffffffffffffffffffffffffffffffff1673ffffffffffffffffffffffffffffffffffffffff1681526020018281526020019250505060405180910390a160019250505090565b60065481565b60046020528060005260406000206000915090505481565b60036020528060005260406000206000915090505481565b600080600160009054906101000a900473ffffffffffffffffffffffffffffffffffffffff1673ffffffffffffffffffffffffffffffffffffffff1663f688cd18336040518263ffffffff167c0100000000000000000000000000000000000000000000000000000000028152600401808273ffffffffffffffffffffffffffffffffffffffff1673ffffffffffffffffffffffffffffffffffffffff168152602001915050602060405180830381600087803b15801561144a57600080fd5b505af115801561145e573d6000803e3d6000fd5b505050506040513d602081101561147457600080fd5b8101908080519060200190929190505050151560011515141515611500576040517f08c379a00000000000000000000000000000000000000000000000000000000081526004018080602001828103825260178152602001807f6d73672e73656e646572206973206e6f742061646d696e00000000000000000081525060200191505060405180910390fd5b600073ffffffffffffffffffffffffffffffffffffffff168373ffffffffffffffffffffffffffffffffffffffff16141515156115a5576040517f08c379a000000000000000000000000000000000000000000000000000000000815260040180806020018281038252600d8152602001807f697320616464726573732830290000000000000000000000000000000000000081525060200191505060405180910390fd5b8291508173ffffffffffffffffffffffffffffffffffffffff166370a08231306040518263ffffffff167c0100000000000000000000000000000000000000000000000000000000028152600401808273ffffffffffffffffffffffffffffffffffffffff1673ffffffffffffffffffffffffffffffffffffffff168152602001915050602060405180830381600087803b15801561164357600080fd5b505af1158015611657573d6000803e3d6000fd5b505050506040513d602081101561166d57600080fd5b810190808051906020019092919050505090508173ffffffffffffffffffffffffffffffffffffffff1663a9059cbb33836040518363ffffffff167c0100000000000000000000000000000000000000000000000000000000028152600401808373ffffffffffffffffffffffffffffffffffffffff1673ffffffffffffffffffffffffffffffffffffffff16815260200182815260200192505050602060405180830381600087803b15801561172357600080fd5b505af1158015611737573d6000803e3d6000fd5b505050506040513d602081101561174d57600080fd5b810190808051906020019092919050505015156117d2576040517f08c379a000000000000000000000000000000000000000000000000000000000815260040180806020018281038252601e8152602001807f666e3a7265636c61696d4552433230207472616e73666572206572726f72000081525060200191505060405180910390fd5b505050565b60008160036000600260009054906101000a900473ffffffffffffffffffffffffffffffffffffffff1673ffffffffffffffffffffffffffffffffffffffff1673ffffffffffffffffffffffffffffffffffffffff16815260200190815260200160002060008282540192505081905550600260009054906101000a900473ffffffffffffffffffffffffffffffffffffffff1673ffffffffffffffffffffffffffffffffffffffff166108fc349081150290604051600060405180830381858888f193505050501580156118b0573d6000803e3d6000fd5b507f9e9d071824fd57d062ca63fd8b786d8da48a6807eebbcb2d83f9e8d21398e28c838342604051808473ffffffffffffffffffffffffffffffffffffffff1673ffffffffffffffffffffffffffffffffffffffff168152602001838152602001828152602001935050505060405180910390a16001905092915050565b6000809054906101000a900473ffffffffffffffffffffffffffffffffffffffff1681565b600381565b6000806000809054906101000a900473ffffffffffffffffffffffffffffffffffffffff1673ffffffffffffffffffffffffffffffffffffffff16638da5cb5b6040518163ffffffff167c0100000000000000000000000000000000000000000000000000000000028152600401602060405180830381600087803b1580156119e057600080fd5b505af11580156119f4573d6000803e3d6000fd5b505050506040513d6020811015611a0a57600080fd5b810190808051906020019092919050505073ffffffffffffffffffffffffffffffffffffffff163373ffffffffffffffffffffffffffffffffffffffff16141515611abd576040517f08c379a00000000000000000000000000000000000000000000000000000000081526004018080602001828103825260178152602001807f6d73672e73656e646572206973206e6f74206f776e657200000000000000000081525060200191505060405180910390fd5b60011515600160149054906101000a900460ff161515141515611b48576040517f08c379a000000000000000000000000000000000000000000000000000000000815260040180806020018281038252600e8152602001807f6973206e6f7420636c656172656400000000000000000000000000000000000081525060200191505060405180910390fd5b60036000600260009054906101000a900473ffffffffffffffffffffffffffffffffffffffff1673ffffffffffffffffffffffffffffffffffffffff1673ffffffffffffffffffffffffffffffffffffffff168152602001908152602001600020549050600060036000600260009054906101000a900473ffffffffffffffffffffffffffffffffffffffff1673ffffffffffffffffffffffffffffffffffffffff1673ffffffffffffffffffffffffffffffffffffffff168152602001908152602001600020819055503373ffffffffffffffffffffffffffffffffffffffff166108fc829081150290604051600060405180830381858888f19350505050158015611c59573d6000803e3d6000fd5b507fac45ee7784c56155f193f90c9f5586bb174f5787c0b6d444758b9297637823eb3382604051808373ffffffffffffffffffffffffffffffffffffffff1673ffffffffffffffffffffffffffffffffffffffff1681526020018281526020019250505060405180910390a1600191505090565b6000600160009054906101000a900473ffffffffffffffffffffffffffffffffffffffff1673ffffffffffffffffffffffffffffffffffffffff1663f688cd18336040518263ffffffff167c0100000000000000000000000000000000000000000000000000000000028152600401808273ffffffffffffffffffffffffffffffffffffffff1673ffffffffffffffffffffffffffffffffffffffff168152602001915050602060405180830381600087803b158015611d8c57600080fd5b505af1158015611da0573d6000803e3d6000fd5b505050506040513d6020811015611db657600080fd5b8101908080519060200190929190505050151560011515141515611e42576040517f08c379a00000000000000000000000000000000000000000000000000000000081526004018080602001828103825260178152602001807f6d73672e73656e646572206973206e6f742061646d696e00000000000000000081525060200191505060405180910390fd5b60018060146101000a81548160ff0219169083151502179055507f3f86f63ede3b5478ec34cd9220f488c7f87efa54fa203044cb94bb2dfd81342a3342604051808373ffffffffffffffffffffffffffffffffffffffff1673ffffffffffffffffffffffffffffffffffffffff1681526020018281526020019250505060405180910390a16001905090565b600181565b60008183811515611ee057fe5b04905092915050565b6000828211151515611ef757fe5b8183039050929150505600a165627a7a723058209eb2c7faac7f8c6d37884ead4a36f0e9fc592a16a108782938ca69333b0805460029",
  "source": "pragma solidity >=0.4.24;\n\nimport \"../../interface/InterfaceDivideModule.sol\";\nimport \"../../interface/InterfaceInvestModule.sol\";\nimport \"../../library/SafeMath.sol\";\n\ncontract BasicDivideModule is InterfaceDivideModule {\n    using SafeMath for uint256;\n    uint256 public creatorRate = 0;\n    uint256 public maxDivideValue = 0;\n    constructor (address _product, address _registry) public\n    InterfaceModule(_product, _registry)\n    {\n      creatorRate = InterfaceProduct(sigStockProduct).creatorRate();\n      maxDivideValue = InterfaceProduct(sigStockProduct).maxDivideValue();\n    }\n    \n    modifier isClearedMission {\n        require(isCleared == true, \"is not cleared\");\n        _;\n    }\n    function clearedMission() external onlyRegistryAdmin returns(bool) {\n        \n        isCleared = true;\n\n        emit IsCleared(msg.sender, block.timestamp);\n\n        return true;\n    }\n    \n    function invest(address _from) public payable returns(bool) {\n        \n        invested[Wallet] += msg.value;\n\n        Wallet.transfer(msg.value);\n\n        emit Invested(_from, msg.value, block.timestamp);\n\n        return true;\n    }\n\n    function invest2(address _from, uint256 _value) public payable returns(bool) {\n        \n        invested[Wallet] += _value;\n        \n        Wallet.transfer(msg.value);\n        \n        emit Invested(_from, _value, block.timestamp);\n\n        return true;\n    }\n    \n    function purchase(address _from) public payable returns (bool) {\n        \n        purchased[Wallet] += msg.value;\n\n        emit Purchased(_from, msg.value, block.timestamp);\n\n        return true;\n    }\n    \n    function withdrawInvestedKLAYFromCreator() public onlyProductOwner isClearedMission payable returns (bool) {\n        \n        uint256 allOfKlay = invested[Wallet];\n        \n        invested[Wallet] = 0;\n        \n        msg.sender.transfer(allOfKlay);\n        \n        emit WithdrawedInvestedKLAYFromCreator(msg.sender, allOfKlay);\n        \n        return true;\n    }\n    \n    // 1 ether / 10 ether / 50 ether units\n    function withdrawPurchasedKLAYFromCreator() public payable returns (bool) {\n        require(purchasedForInvestor[Wallet] == 0, \"is not completed investor's step\");\n        require(creatorRate > 0,\"is not initialized\");\n        require(purchased[Wallet] >= maxDivideValue, \"has not sufficient klay\");\n        //creatorRate  2 KLAY . 100 * 2 / 10\n        uint256 rate = (creatorRate / 10 ether);\n        uint klayValue = maxDivideValue * rate;\n        \n        purchased[Wallet] -= klayValue;\n        purchasedForInvestor[Wallet] += purchased[Wallet];\n        purchased[Wallet] = 0;\n\n        msg.sender.transfer(klayValue);\n        \n        emit WithdrawedPurchasedKLAYFromCreator(msg.sender, klayValue);\n        return true;\n    }\n    \n    function withdrawPurchasedKLAYFromInvestor() public payable returns(bool) {\n        require(creatorRate > 0,\"is not initialized\");\n        require(purchased[Wallet] == 0, \"is not completed creator's step\");\n        \n        uint256 rate;\n        //1.   .\n        //2.    .\n        //3.  /  ==>   .\n        //4.      .\n        uint klay = 10 ether * rate.div(creatorRate);\n        \n        address investModule = InterfaceProduct(sigStockProduct).module(INVEST_KEY);\n        //cap 1000KLAY \n        uint256 _cap = InterfaceInvestModule(investModule).cap();\n        // 50KLAY \n        uint256 _InvestorValue = InterfaceInvestModule(investModule).investors(msg.sender);\n        \n        rate = _InvestorValue.div(_cap); // 5%   .\n        \n        uint256 getValue = purchasedForInvestor[Wallet] * rate;\n        \n        purchasedForInvestor[Wallet].sub(getValue);\n\n        msg.sender.transfer(getValue);\n        \n        emit WithdrawedPurchasedKLAYFromInvestor(msg.sender, klay);\n        \n        return true;\n        \n    }\n    \n    function getType() public view returns(uint8) {\n        return 3;\n    }\n    \n    function getName() public view returns(bytes32) {\n        return \"BasicDivideModule\";\n    }\n}",
  "sourcePath": "/Users/berk/side_pj/5nodeProject/smtContract/contracts/modules/basic/BasicDivideModule.sol",
  "compiler": {
    "name": "solc",
    "version": "0.4.24+commit.e67f0147.Emscripten.clang"
  },
  "schemaVersion": "3.0.6",
  "updatedAt": "2019-05-25T07:53:18.364Z",
  "devdoc": {
    "methods": {}
  },
  "userdoc": {
    "methods": {}
  }
}