{
  "contractName": "Product",
  "abi": [
    {
      "constant": true,
      "inputs": [],
      "name": "PURCHASE_KEY",
      "outputs": [
        {
          "name": "",
          "type": "uint8"
        }
      ],
      "payable": false,
      "stateMutability": "view",
      "type": "function"
    },
    {
      "constant": true,
      "inputs": [],
      "name": "productTitle",
      "outputs": [
        {
          "name": "",
          "type": "string"
        }
      ],
      "payable": false,
      "stateMutability": "view",
      "type": "function"
    },
    {
      "constant": true,
      "inputs": [],
      "name": "maxDivideValue",
      "outputs": [
        {
          "name": "",
          "type": "uint256"
        }
      ],
      "payable": false,
      "stateMutability": "view",
      "type": "function"
    },
    {
      "constant": true,
      "inputs": [],
      "name": "creatorRate",
      "outputs": [
        {
          "name": "",
          "type": "uint256"
        }
      ],
      "payable": false,
      "stateMutability": "view",
      "type": "function"
    },
    {
      "constant": true,
      "inputs": [],
      "name": "MAX_MODULES",
      "outputs": [
        {
          "name": "",
          "type": "uint8"
        }
      ],
      "payable": false,
      "stateMutability": "view",
      "type": "function"
    },
    {
      "constant": true,
      "inputs": [
        {
          "name": "",
          "type": "uint8"
        }
      ],
      "name": "module",
      "outputs": [
        {
          "name": "",
          "type": "address"
        }
      ],
      "payable": false,
      "stateMutability": "view",
      "type": "function"
    },
    {
      "constant": true,
      "inputs": [
        {
          "name": "",
          "type": "uint8"
        },
        {
          "name": "",
          "type": "uint256"
        }
      ],
      "name": "modules",
      "outputs": [
        {
          "name": "key",
          "type": "bytes32"
        },
        {
          "name": "moduleAddr",
          "type": "address"
        }
      ],
      "payable": false,
      "stateMutability": "view",
      "type": "function"
    },
    {
      "constant": true,
      "inputs": [],
      "name": "productDescription",
      "outputs": [
        {
          "name": "",
          "type": "string"
        }
      ],
      "payable": false,
      "stateMutability": "view",
      "type": "function"
    },
    {
      "constant": true,
      "inputs": [],
      "name": "owner",
      "outputs": [
        {
          "name": "",
          "type": "address"
        }
      ],
      "payable": false,
      "stateMutability": "view",
      "type": "function"
    },
    {
      "constant": true,
      "inputs": [
        {
          "name": "",
          "type": "uint8"
        }
      ],
      "name": "productItems",
      "outputs": [
        {
          "name": "contentKey",
          "type": "bytes"
        },
        {
          "name": "mainTitle",
          "type": "string"
        },
        {
          "name": "subTitle",
          "type": "string"
        },
        {
          "name": "description",
          "type": "string"
        },
        {
          "name": "recital",
          "type": "string"
        },
        {
          "name": "createdTime",
          "type": "uint256"
        }
      ],
      "payable": false,
      "stateMutability": "view",
      "type": "function"
    },
    {
      "constant": true,
      "inputs": [],
      "name": "contentCount",
      "outputs": [
        {
          "name": "",
          "type": "uint8"
        }
      ],
      "payable": false,
      "stateMutability": "view",
      "type": "function"
    },
    {
      "constant": true,
      "inputs": [],
      "name": "DIVIDE_KEY",
      "outputs": [
        {
          "name": "",
          "type": "uint8"
        }
      ],
      "payable": false,
      "stateMutability": "view",
      "type": "function"
    },
    {
      "constant": false,
      "inputs": [
        {
          "name": "_newOwner",
          "type": "address"
        }
      ],
      "name": "transferOwnership",
      "outputs": [],
      "payable": false,
      "stateMutability": "nonpayable",
      "type": "function"
    },
    {
      "constant": true,
      "inputs": [],
      "name": "INVEST_KEY",
      "outputs": [
        {
          "name": "",
          "type": "uint8"
        }
      ],
      "payable": false,
      "stateMutability": "view",
      "type": "function"
    },
    {
      "inputs": [
        {
          "name": "_title",
          "type": "string"
        },
        {
          "name": "_description",
          "type": "string"
        },
        {
          "name": "_creatorRate",
          "type": "uint256"
        },
        {
          "name": "_maxDivideValue",
          "type": "uint256"
        }
      ],
      "payable": false,
      "stateMutability": "nonpayable",
      "type": "constructor"
    },
    {
      "anonymous": false,
      "inputs": [
        {
          "indexed": false,
          "name": "_from",
          "type": "address"
        },
        {
          "indexed": false,
          "name": "_productTitle",
          "type": "string"
        },
        {
          "indexed": false,
          "name": "_productDescription",
          "type": "string"
        }
      ],
      "name": "SetConfigure",
      "type": "event"
    },
    {
      "anonymous": false,
      "inputs": [
        {
          "indexed": false,
          "name": "_from",
          "type": "address"
        },
        {
          "indexed": false,
          "name": "_contentKey",
          "type": "bytes"
        },
        {
          "indexed": false,
          "name": "_mainTitle",
          "type": "string"
        },
        {
          "indexed": false,
          "name": "_subTitle",
          "type": "string"
        },
        {
          "indexed": false,
          "name": "_createdTime",
          "type": "uint256"
        }
      ],
      "name": "AddedContent",
      "type": "event"
    },
    {
      "anonymous": false,
      "inputs": [
        {
          "indexed": false,
          "name": "_from",
          "type": "address"
        },
        {
          "indexed": false,
          "name": "_num",
          "type": "uint8"
        }
      ],
      "name": "DeletedContent",
      "type": "event"
    },
    {
      "anonymous": false,
      "inputs": [
        {
          "indexed": true,
          "name": "_type",
          "type": "uint8"
        },
        {
          "indexed": false,
          "name": "_name",
          "type": "bytes32"
        },
        {
          "indexed": false,
          "name": "_module",
          "type": "address"
        },
        {
          "indexed": false,
          "name": "_timestamp",
          "type": "uint256"
        }
      ],
      "name": "LogModuleAdded",
      "type": "event"
    },
    {
      "anonymous": false,
      "inputs": [
        {
          "indexed": true,
          "name": "_type",
          "type": "uint8"
        },
        {
          "indexed": false,
          "name": "_module",
          "type": "address"
        },
        {
          "indexed": false,
          "name": "_timestamp",
          "type": "uint256"
        }
      ],
      "name": "LogModuleRemoved",
      "type": "event"
    },
    {
      "anonymous": false,
      "inputs": [
        {
          "indexed": true,
          "name": "previousOwner",
          "type": "address"
        },
        {
          "indexed": true,
          "name": "newOwner",
          "type": "address"
        }
      ],
      "name": "OwnershipTransferred",
      "type": "event"
    },
    {
      "constant": false,
      "inputs": [
        {
          "name": "_contentKey",
          "type": "bytes"
        },
        {
          "name": "_mainTitle",
          "type": "string"
        },
        {
          "name": "_subTitle",
          "type": "string"
        },
        {
          "name": "_description",
          "type": "string"
        },
        {
          "name": "_recital",
          "type": "string"
        }
      ],
      "name": "addContent",
      "outputs": [
        {
          "name": "",
          "type": "bool"
        }
      ],
      "payable": false,
      "stateMutability": "nonpayable",
      "type": "function"
    },
    {
      "constant": false,
      "inputs": [
        {
          "name": "_num",
          "type": "uint8"
        }
      ],
      "name": "deleteContent",
      "outputs": [
        {
          "name": "",
          "type": "bool"
        }
      ],
      "payable": false,
      "stateMutability": "nonpayable",
      "type": "function"
    },
    {
      "constant": false,
      "inputs": [
        {
          "name": "_title",
          "type": "string"
        },
        {
          "name": "_description",
          "type": "string"
        }
      ],
      "name": "setConfigure",
      "outputs": [
        {
          "name": "",
          "type": "bool"
        }
      ],
      "payable": false,
      "stateMutability": "nonpayable",
      "type": "function"
    },
    {
      "constant": true,
      "inputs": [],
      "name": "getInvestorsLength",
      "outputs": [
        {
          "name": "",
          "type": "uint256"
        }
      ],
      "payable": false,
      "stateMutability": "view",
      "type": "function"
    },
    {
      "constant": true,
      "inputs": [],
      "name": "getPurchasersLength",
      "outputs": [
        {
          "name": "",
          "type": "uint256"
        }
      ],
      "payable": false,
      "stateMutability": "view",
      "type": "function"
    },
    {
      "constant": false,
      "inputs": [
        {
          "name": "_moduleAddress",
          "type": "address"
        }
      ],
      "name": "addModule",
      "outputs": [
        {
          "name": "",
          "type": "bool"
        }
      ],
      "payable": false,
      "stateMutability": "nonpayable",
      "type": "function"
    },
    {
      "constant": true,
      "inputs": [
        {
          "name": "_moduleType",
          "type": "uint8"
        },
        {
          "name": "_moduleIndex",
          "type": "uint8"
        }
      ],
      "name": "getModule",
      "outputs": [
        {
          "name": "",
          "type": "bytes32"
        },
        {
          "name": "",
          "type": "address"
        }
      ],
      "payable": false,
      "stateMutability": "view",
      "type": "function"
    },
    {
      "constant": false,
      "inputs": [
        {
          "name": "_moduleType",
          "type": "uint8"
        },
        {
          "name": "_moduleIndex",
          "type": "uint8"
        }
      ],
      "name": "removeModule",
      "outputs": [
        {
          "name": "",
          "type": "bool"
        }
      ],
      "payable": false,
      "stateMutability": "nonpayable",
      "type": "function"
    },
    {
      "constant": false,
      "inputs": [
        {
          "name": "_startTime",
          "type": "uint256"
        },
        {
          "name": "_endTime",
          "type": "uint256"
        },
        {
          "name": "_cap",
          "type": "uint256"
        },
        {
          "name": "_max_investors",
          "type": "uint256"
        },
        {
          "name": "_fundsReceiver",
          "type": "address"
        }
      ],
      "name": "setInvestConfigure",
      "outputs": [
        {
          "name": "",
          "type": "bool"
        }
      ],
      "payable": false,
      "stateMutability": "nonpayable",
      "type": "function"
    },
    {
      "constant": false,
      "inputs": [
        {
          "name": "_startTime",
          "type": "uint256"
        },
        {
          "name": "_endTime",
          "type": "uint256"
        },
        {
          "name": "_fundsReceiver",
          "type": "address"
        }
      ],
      "name": "setPurchaseConfigure",
      "outputs": [
        {
          "name": "",
          "type": "bool"
        }
      ],
      "payable": false,
      "stateMutability": "nonpayable",
      "type": "function"
    },
    {
      "constant": true,
      "inputs": [],
      "name": "getRaiseKlayFromInvest",
      "outputs": [
        {
          "name": "",
          "type": "uint256"
        }
      ],
      "payable": false,
      "stateMutability": "view",
      "type": "function"
    },
    {
      "constant": true,
      "inputs": [],
      "name": "getRaiseKlayFromPurchase",
      "outputs": [
        {
          "name": "",
          "type": "uint256"
        }
      ],
      "payable": false,
      "stateMutability": "view",
      "type": "function"
    }
  ],
  "bytecode": "0x60806040523480156200001157600080fd5b506040516200350d3803806200350d83398101806040528101908080518201929190602001805182019291906020018051906020019092919080519060200190929190505050336000806101000a81548173ffffffffffffffffffffffffffffffffffffffff021916908373ffffffffffffffffffffffffffffffffffffffff160217905550670de0b6b3a76400008202671bc16d674ec800001015151562000148576040517f08c379a00000000000000000000000000000000000000000000000000000000081526004018080602001828103825260258152602001807f6974206973206578636565646564206f662076616c7565205b63726561746f7281526020017f526174655d00000000000000000000000000000000000000000000000000000081525060400191505060405180910390fd5b6000670de0b6b3a76400008084028115156200016057fe5b06141515620001d7576040517f08c379a00000000000000000000000000000000000000000000000000000000081526004018080602001828103825260118152602001807f6772616e756c617269747920636865636b00000000000000000000000000000081525060200191505060405180910390fd5b8360069080519060200190620001ef92919062000235565b5082600790805190602001906200020892919062000235565b50670de0b6b3a76400008202600481905550670de0b6b3a7640000810260038190555050505050620002e4565b828054600181600116156101000203166002900490600052602060002090601f016020900481019282601f106200027857805160ff1916838001178555620002a9565b82800160010185558215620002a9579182015b82811115620002a85782518255916020019190600101906200028b565b5b509050620002b89190620002bc565b5090565b620002e191905b80821115620002dd576000816000905550600101620002c3565b5090565b90565b61321980620002f46000396000f300608060405260043610610154576000357c0100000000000000000000000000000000000000000000000000000000900463ffffffff16806301d84c42146101595780630421a50c1461018a5780630a79c3c61461021a5780631ac52f6f146102455780631b2ae899146102705780631c4c6974146102c55780631ed86f19146103345780632fecc1451461038f5780634baa3faa1461041b5780635f1e8c1b1461044657806363b46bde14610477578063729d20e2146104e757806384b67b35146105705780638a30f8cc146107095780638da5cb5b146107995780638f640666146107f05780639b3fcd0f1461081b5780639fe83a9814610a7b578063ab22391914610afe578063cc45969614610b29578063d3efbdc314610b5a578063e3cc65e214610b8b578063ec37b9e314610bb6578063f2fde38b14610c7d578063f82789f614610cc0578063ff91a68d14610d08575b600080fd5b34801561016557600080fd5b5061016e610d39565b604051808260ff1660ff16815260200191505060405180910390f35b34801561019657600080fd5b5061019f610d3e565b6040518080602001828103825283818151815260200191508051906020019080838360005b838110156101df5780820151818401526020810190506101c4565b50505050905090810190601f16801561020c5780820380516001836020036101000a031916815260200191505b509250505060405180910390f35b34801561022657600080fd5b5061022f610ddc565b6040518082815260200191505060405180910390f35b34801561025157600080fd5b5061025a610ec1565b6040518082815260200191505060405180910390f35b34801561027c57600080fd5b506102ab600480360381019080803560ff169060200190929190803560ff169060200190929190505050610ec7565b604051808215151515815260200191505060405180910390f35b3480156102d157600080fd5b5061031a6004803603810190808035906020019092919080359060200190929190803573ffffffffffffffffffffffffffffffffffffffff169060200190929190505050611589565b604051808215151515815260200191505060405180910390f35b34801561034057600080fd5b50610375600480360381019080803573ffffffffffffffffffffffffffffffffffffffff1690602001909291905050506117af565b604051808215151515815260200191505060405180910390f35b34801561039b57600080fd5b506103ca600480360381019080803560ff169060200190929190803560ff169060200190929190505050611c00565b6040518083600019166000191681526020018273ffffffffffffffffffffffffffffffffffffffff1673ffffffffffffffffffffffffffffffffffffffff1681526020019250505060405180910390f35b34801561042757600080fd5b50610430611cd7565b6040518082815260200191505060405180910390f35b34801561045257600080fd5b5061045b611cdd565b604051808260ff1660ff16815260200191505060405180910390f35b34801561048357600080fd5b506104a5600480360381019080803560ff169060200190929190505050611ce2565b604051808273ffffffffffffffffffffffffffffffffffffffff1673ffffffffffffffffffffffffffffffffffffffff16815260200191505060405180910390f35b3480156104f357600080fd5b5061051f600480360381019080803560ff16906020019092919080359060200190929190505050611d15565b6040518083600019166000191681526020018273ffffffffffffffffffffffffffffffffffffffff1673ffffffffffffffffffffffffffffffffffffffff1681526020019250505060405180910390f35b34801561057c57600080fd5b506106ef600480360381019080803590602001908201803590602001908080601f0160208091040260200160405190810160405280939291908181526020018383808284378201915050505050509192919290803590602001908201803590602001908080601f0160208091040260200160405190810160405280939291908181526020018383808284378201915050505050509192919290803590602001908201803590602001908080601f0160208091040260200160405190810160405280939291908181526020018383808284378201915050505050509192919290803590602001908201803590602001908080601f0160208091040260200160405190810160405280939291908181526020018383808284378201915050505050509192919290803590602001908201803590602001908080601f0160208091040260200160405190810160405280939291908181526020018383808284378201915050505050509192919290505050611d75565b604051808215151515815260200191505060405180910390f35b34801561071557600080fd5b5061071e611f73565b6040518080602001828103825283818151815260200191508051906020019080838360005b8381101561075e578082015181840152602081019050610743565b50505050905090810190601f16801561078b5780820380516001836020036101000a031916815260200191505b509250505060405180910390f35b3480156107a557600080fd5b506107ae612011565b604051808273ffffffffffffffffffffffffffffffffffffffff1673ffffffffffffffffffffffffffffffffffffffff16815260200191505060405180910390f35b3480156107fc57600080fd5b50610805612036565b6040518082815260200191505060405180910390f35b34801561082757600080fd5b50610849600480360381019080803560ff16906020019092919050505061211b565b60405180806020018060200180602001806020018060200187815260200186810386528c818151815260200191508051906020019080838360005b8381101561089f578082015181840152602081019050610884565b50505050905090810190601f1680156108cc5780820380516001836020036101000a031916815260200191505b5086810385528b818151815260200191508051906020019080838360005b838110156109055780820151818401526020810190506108ea565b50505050905090810190601f1680156109325780820380516001836020036101000a031916815260200191505b5086810384528a818151815260200191508051906020019080838360005b8381101561096b578082015181840152602081019050610950565b50505050905090810190601f1680156109985780820380516001836020036101000a031916815260200191505b50868103835289818151815260200191508051906020019080838360005b838110156109d15780820151818401526020810190506109b6565b50505050905090810190601f1680156109fe5780820380516001836020036101000a031916815260200191505b50868103825288818151815260200191508051906020019080838360005b83811015610a37578082015181840152602081019050610a1c565b50505050905090810190601f168015610a645780820380516001836020036101000a031916815260200191505b509b50505050505050505050505060405180910390f35b348015610a8757600080fd5b50610ae460048036038101908080359060200190929190803590602001909291908035906020019092919080359060200190929190803573ffffffffffffffffffffffffffffffffffffffff16906020019092919050505061244f565b604051808215151515815260200191505060405180910390f35b348015610b0a57600080fd5b50610b13612687565b6040518082815260200191505060405180910390f35b348015610b3557600080fd5b50610b3e61276c565b604051808260ff1660ff16815260200191505060405180910390f35b348015610b6657600080fd5b50610b6f61277f565b604051808260ff1660ff16815260200191505060405180910390f35b348015610b9757600080fd5b50610ba0612784565b6040518082815260200191505060405180910390f35b348015610bc257600080fd5b50610c63600480360381019080803590602001908201803590602001908080601f0160208091040260200160405190810160405280939291908181526020018383808284378201915050505050509192919290803590602001908201803590602001908080601f0160208091040260200160405190810160405280939291908181526020018383808284378201915050505050509192919290505050612869565b604051808215151515815260200191505060405180910390f35b348015610c8957600080fd5b50610cbe600480360381019080803573ffffffffffffffffffffffffffffffffffffffff169060200190929190505050612adc565b005b348015610ccc57600080fd5b50610cee600480360381019080803560ff169060200190929190505050612bac565b604051808215151515815260200191505060405180910390f35b348015610d1457600080fd5b50610d1d612e60565b604051808260ff1660ff16815260200191505060405180910390f35b600281565b60068054600181600116156101000203166002900480601f016020809104026020016040519081016040528092919081815260200182805460018160011615610100020316600290048015610dd45780601f10610da957610100808354040283529160200191610dd4565b820191906000526020600020905b815481529060010190602001808311610db757829003601f168201915b505050505081565b60008060026000600160ff1660ff16815260200190815260200160002060009054906101000a900473ffffffffffffffffffffffffffffffffffffffff1673ffffffffffffffffffffffffffffffffffffffff166343755beb6040518163ffffffff167c0100000000000000000000000000000000000000000000000000000000028152600401602060405180830381600087803b158015610e7d57600080fd5b505af1158015610e91573d6000803e3d6000fd5b505050506040513d6020811015610ea757600080fd5b810190808051906020019092919050505090508091505090565b60035481565b60008060009054906101000a900473ffffffffffffffffffffffffffffffffffffffff1673ffffffffffffffffffffffffffffffffffffffff163373ffffffffffffffffffffffffffffffffffffffff16141515610f8d576040517f08c379a000000000000000000000000000000000000000000000000000000000815260040180806020018281038252600c8152602001807f6973206e6f74206f776e6572000000000000000000000000000000000000000081525060200191505060405180910390fd5b600860008460ff1660ff168152602001908152602001600020805490508260ff16101515611049576040517f08c379a00000000000000000000000000000000000000000000000000000000081526004018080602001828103825260398152602001807f4d6f64756c6520696e64657820646f65736e277420657869737420617320706581526020017f72207468652063686f6f73656e206d6f64756c6520747970650000000000000081525060400191505060405180910390fd5b600073ffffffffffffffffffffffffffffffffffffffff16600260008560ff1660ff16815260200190815260200160002060009054906101000a900473ffffffffffffffffffffffffffffffffffffffff1673ffffffffffffffffffffffffffffffffffffffff1614151515611127576040517f08c379a00000000000000000000000000000000000000000000000000000000081526004018080602001828103825260118152602001807f6973206e6f74206164647265737328302900000000000000000000000000000081525060200191505060405180910390fd5b600073ffffffffffffffffffffffffffffffffffffffff16600860008560ff1660ff1681526020019081526020016000208360ff1681548110151561116857fe5b906000526020600020906002020160010160009054906101000a900473ffffffffffffffffffffffffffffffffffffffff1673ffffffffffffffffffffffffffffffffffffffff161415151561124c576040517f08c379a00000000000000000000000000000000000000000000000000000000081526004018080602001828103825260288152602001807f4d6f64756c6520636f6e747261637420616464726573732073686f756c64206e81526020017f6f7420626520307800000000000000000000000000000000000000000000000081525060400191505060405180910390fd5b600260008460ff1660ff16815260200190815260200160002060009054906101000a900473ffffffffffffffffffffffffffffffffffffffff1673ffffffffffffffffffffffffffffffffffffffff16600860008560ff1660ff1681526020019081526020016000208360ff168154811015156112c557fe5b906000526020600020906002020160010160009054906101000a900473ffffffffffffffffffffffffffffffffffffffff1673ffffffffffffffffffffffffffffffffffffffff16141561136d576000600260008560ff1660ff16815260200190815260200160002060006101000a81548173ffffffffffffffffffffffffffffffffffffffff021916908373ffffffffffffffffffffffffffffffffffffffff1602179055505b8260ff167fe69a96f148bcf365cf82241853ecbeb32c5b01500d98bf3d93ee870cd951162c600860008660ff1660ff1681526020019081526020016000208460ff168154811015156113bb57fe5b906000526020600020906002020160010160009054906101000a900473ffffffffffffffffffffffffffffffffffffffff1642604051808373ffffffffffffffffffffffffffffffffffffffff1673ffffffffffffffffffffffffffffffffffffffff1681526020018281526020019250505060405180910390a2600860008460ff1660ff1681526020019081526020016000206001600860008660ff1660ff168152602001908152602001600020805490500381548110151561147b57fe5b9060005260206000209060020201600860008560ff1660ff1681526020019081526020016000208360ff168154811015156114b257fe5b9060005260206000209060020201600082015481600001906000191690556001820160009054906101000a900473ffffffffffffffffffffffffffffffffffffffff168160010160006101000a81548173ffffffffffffffffffffffffffffffffffffffff021916908373ffffffffffffffffffffffffffffffffffffffff1602179055509050506001600860008560ff1660ff1681526020019081526020016000208054905003600860008560ff1660ff1681526020019081526020016000208161157e9190612fc8565b506001905092915050565b60008060009054906101000a900473ffffffffffffffffffffffffffffffffffffffff1673ffffffffffffffffffffffffffffffffffffffff163373ffffffffffffffffffffffffffffffffffffffff1614151561164f576040517f08c379a000000000000000000000000000000000000000000000000000000000815260040180806020018281038252600c8152602001807f6973206e6f74206f776e6572000000000000000000000000000000000000000081525060200191505060405180910390fd5b60026000600260ff1660ff16815260200190815260200160002060009054906101000a900473ffffffffffffffffffffffffffffffffffffffff1673ffffffffffffffffffffffffffffffffffffffff1663e282192d858585336040518563ffffffff167c0100000000000000000000000000000000000000000000000000000000028152600401808581526020018481526020018373ffffffffffffffffffffffffffffffffffffffff1673ffffffffffffffffffffffffffffffffffffffff1681526020018273ffffffffffffffffffffffffffffffffffffffff1673ffffffffffffffffffffffffffffffffffffffff168152602001945050505050602060405180830381600087803b15801561176857600080fd5b505af115801561177c573d6000803e3d6000fd5b505050506040513d602081101561179257600080fd5b810190808051906020019092919050505050600190509392505050565b60008060008060009054906101000a900473ffffffffffffffffffffffffffffffffffffffff1673ffffffffffffffffffffffffffffffffffffffff163373ffffffffffffffffffffffffffffffffffffffff16141515611878576040517f08c379a000000000000000000000000000000000000000000000000000000000815260040180806020018281038252600c8152602001807f6973206e6f74206f776e6572000000000000000000000000000000000000000081525060200191505060405180910390fd5b8373ffffffffffffffffffffffffffffffffffffffff166315dae03e6040518163ffffffff167c0100000000000000000000000000000000000000000000000000000000028152600401602060405180830381600087803b1580156118dc57600080fd5b505af11580156118f0573d6000803e3d6000fd5b505050506040513d602081101561190657600080fd5b810190808051906020019092919050505091508373ffffffffffffffffffffffffffffffffffffffff166317d7de7c6040518163ffffffff167c0100000000000000000000000000000000000000000000000000000000028152600401602060405180830381600087803b15801561197d57600080fd5b505af1158015611991573d6000803e3d6000fd5b505050506040513d60208110156119a757600080fd5b81019080805190602001909291905050509050600a60ff16600860008460ff1660ff16815260200190815260200160002080549050101515611a51576040517f08c379a000000000000000000000000000000000000000000000000000000000815260040180806020018281038252601f8152602001807f4c696d6974206f66204d4158204d4f44554c455320697320726561636865640081525060200191505060405180910390fd5b600860008360ff1660ff1681526020019081526020016000206040805190810160405280836000191681526020018673ffffffffffffffffffffffffffffffffffffffff16815250908060018154018082558091505090600182039060005260206000209060020201600090919290919091506000820151816000019060001916905560208201518160010160006101000a81548173ffffffffffffffffffffffffffffffffffffffff021916908373ffffffffffffffffffffffffffffffffffffffff16021790555050505083600260008460ff1660ff16815260200190815260200160002060006101000a81548173ffffffffffffffffffffffffffffffffffffffff021916908373ffffffffffffffffffffffffffffffffffffffff1602179055508160ff167f81c67b957de128754e728f8b3e8cbf6483f273a9a6a59d7affe331beaf48ea168286426040518084600019166000191681526020018373ffffffffffffffffffffffffffffffffffffffff1673ffffffffffffffffffffffffffffffffffffffff168152602001828152602001935050505060405180910390a2600192505050919050565b6000806000600860008660ff1660ff168152602001908152602001600020805490501115611cc757600860008560ff1660ff1681526020019081526020016000208360ff16815481101515611c5157fe5b906000526020600020906002020160000154600860008660ff1660ff1681526020019081526020016000208460ff16815481101515611c8c57fe5b906000526020600020906002020160010160009054906101000a900473ffffffffffffffffffffffffffffffffffffffff1691509150611cd0565b60008090915091505b9250929050565b60045481565b600a81565b60026020528060005260406000206000915054906101000a900473ffffffffffffffffffffffffffffffffffffffff1681565b600860205281600052604060002081815481101515611d3057fe5b9060005260206000209060020201600091509150508060000154908060010160009054906101000a900473ffffffffffffffffffffffffffffffffffffffff16905082565b6000806000809054906101000a900473ffffffffffffffffffffffffffffffffffffffff1673ffffffffffffffffffffffffffffffffffffffff163373ffffffffffffffffffffffffffffffffffffffff16141515611e3c576040517f08c379a000000000000000000000000000000000000000000000000000000000815260040180806020018281038252600c8152602001807f6973206e6f74206f776e6572000000000000000000000000000000000000000081525060200191505060405180910390fd5b42905060c0604051908101604052808881526020018781526020018681526020018581526020018481526020018281525060016000600560009054906101000a900460ff1660ff1660ff1681526020019081526020016000206000820151816000019080519060200190611eb1929190612ffa565b506020820151816001019080519060200190611ece92919061307a565b506040820151816002019080519060200190611eeb92919061307a565b506060820151816003019080519060200190611f0892919061307a565b506080820151816004019080519060200190611f2592919061307a565b5060a082015181600501559050506005600081819054906101000a900460ff168092919060010191906101000a81548160ff021916908360ff16021790555050600191505095945050505050565b60078054600181600116156101000203166002900480601f0160208091040260200160405190810160405280929190818152602001828054600181600116156101000203166002900480156120095780601f10611fde57610100808354040283529160200191612009565b820191906000526020600020905b815481529060010190602001808311611fec57829003601f168201915b505050505081565b6000809054906101000a900473ffffffffffffffffffffffffffffffffffffffff1681565b60008060026000600260ff1660ff16815260200190815260200160002060009054906101000a900473ffffffffffffffffffffffffffffffffffffffff1673ffffffffffffffffffffffffffffffffffffffff1663680718af6040518163ffffffff167c0100000000000000000000000000000000000000000000000000000000028152600401602060405180830381600087803b1580156120d757600080fd5b505af11580156120eb573d6000803e3d6000fd5b505050506040513d602081101561210157600080fd5b810190808051906020019092919050505090508091505090565b6001602052806000526040600020600091509050806000018054600181600116156101000203166002900480601f0160208091040260200160405190810160405280929190818152602001828054600181600116156101000203166002900480156121c75780601f1061219c576101008083540402835291602001916121c7565b820191906000526020600020905b8154815290600101906020018083116121aa57829003601f168201915b505050505090806001018054600181600116156101000203166002900480601f0160208091040260200160405190810160405280929190818152602001828054600181600116156101000203166002900480156122655780601f1061223a57610100808354040283529160200191612265565b820191906000526020600020905b81548152906001019060200180831161224857829003601f168201915b505050505090806002018054600181600116156101000203166002900480601f0160208091040260200160405190810160405280929190818152602001828054600181600116156101000203166002900480156123035780601f106122d857610100808354040283529160200191612303565b820191906000526020600020905b8154815290600101906020018083116122e657829003601f168201915b505050505090806003018054600181600116156101000203166002900480601f0160208091040260200160405190810160405280929190818152602001828054600181600116156101000203166002900480156123a15780601f10612376576101008083540402835291602001916123a1565b820191906000526020600020905b81548152906001019060200180831161238457829003601f168201915b505050505090806004018054600181600116156101000203166002900480601f01602080910402602001604051908101604052809291908181526020018280546001816001161561010002031660029004801561243f5780601f106124145761010080835404028352916020019161243f565b820191906000526020600020905b81548152906001019060200180831161242257829003601f168201915b5050505050908060050154905086565b60008060009054906101000a900473ffffffffffffffffffffffffffffffffffffffff1673ffffffffffffffffffffffffffffffffffffffff163373ffffffffffffffffffffffffffffffffffffffff16141515612515576040517f08c379a000000000000000000000000000000000000000000000000000000000815260040180806020018281038252600c8152602001807f6973206e6f74206f776e6572000000000000000000000000000000000000000081525060200191505060405180910390fd5b60026000600160ff1660ff16815260200190815260200160002060009054906101000a900473ffffffffffffffffffffffffffffffffffffffff1673ffffffffffffffffffffffffffffffffffffffff1663471195c68787878787336040518763ffffffff167c0100000000000000000000000000000000000000000000000000000000028152600401808781526020018681526020018581526020018481526020018373ffffffffffffffffffffffffffffffffffffffff1673ffffffffffffffffffffffffffffffffffffffff1681526020018273ffffffffffffffffffffffffffffffffffffffff1673ffffffffffffffffffffffffffffffffffffffff1681526020019650505050505050602060405180830381600087803b15801561263e57600080fd5b505af1158015612652573d6000803e3d6000fd5b505050506040513d602081101561266857600080fd5b8101908080519060200190929190505050506001905095945050505050565b60008060026000600260ff1660ff16815260200190815260200160002060009054906101000a900473ffffffffffffffffffffffffffffffffffffffff1673ffffffffffffffffffffffffffffffffffffffff166343755beb6040518163ffffffff167c0100000000000000000000000000000000000000000000000000000000028152600401602060405180830381600087803b15801561272857600080fd5b505af115801561273c573d6000803e3d6000fd5b505050506040513d602081101561275257600080fd5b810190808051906020019092919050505090508091505090565b600560009054906101000a900460ff1681565b600381565b60008060026000600160ff1660ff16815260200190815260200160002060009054906101000a900473ffffffffffffffffffffffffffffffffffffffff1673ffffffffffffffffffffffffffffffffffffffff166338c59de96040518163ffffffff167c0100000000000000000000000000000000000000000000000000000000028152600401602060405180830381600087803b15801561282557600080fd5b505af1158015612839573d6000803e3d6000fd5b505050506040513d602081101561284f57600080fd5b810190808051906020019092919050505090508091505090565b60008060009054906101000a900473ffffffffffffffffffffffffffffffffffffffff1673ffffffffffffffffffffffffffffffffffffffff163373ffffffffffffffffffffffffffffffffffffffff1614151561292f576040517f08c379a000000000000000000000000000000000000000000000000000000000815260040180806020018281038252600c8152602001807f6973206e6f74206f776e6572000000000000000000000000000000000000000081525060200191505060405180910390fd5b82600690805190602001906129459291906130fa565b50816007908051906020019061295c9291906130fa565b507f549bf98ae78414f4038ae3a1d7386a807247ff6263e0e90e46fb7b4d8e9821d63360066007604051808473ffffffffffffffffffffffffffffffffffffffff1673ffffffffffffffffffffffffffffffffffffffff1681526020018060200180602001838103835285818154600181600116156101000203166002900481526020019150805460018160011615610100020316600290048015612a425780601f10612a1757610100808354040283529160200191612a42565b820191906000526020600020905b815481529060010190602001808311612a2557829003601f168201915b5050838103825284818154600181600116156101000203166002900481526020019150805460018160011615610100020316600290048015612ac55780601f10612a9a57610100808354040283529160200191612ac5565b820191906000526020600020905b815481529060010190602001808311612aa857829003601f168201915b50509550505050505060405180910390a192915050565b6000809054906101000a900473ffffffffffffffffffffffffffffffffffffffff1673ffffffffffffffffffffffffffffffffffffffff163373ffffffffffffffffffffffffffffffffffffffff16141515612ba0576040517f08c379a000000000000000000000000000000000000000000000000000000000815260040180806020018281038252600c8152602001807f6973206e6f74206f776e6572000000000000000000000000000000000000000081525060200191505060405180910390fd5b612ba981612e65565b50565b60008060009054906101000a900473ffffffffffffffffffffffffffffffffffffffff1673ffffffffffffffffffffffffffffffffffffffff163373ffffffffffffffffffffffffffffffffffffffff16141515612c72576040517f08c379a000000000000000000000000000000000000000000000000000000000815260040180806020018281038252600c8152602001807f6973206e6f74206f776e6572000000000000000000000000000000000000000081525060200191505060405180910390fd5b60008260ff1614151515612cee576040517f08c379a000000000000000000000000000000000000000000000000000000000815260040180806020018281038252601c8152602001807f666e3a64656c657465436f6e74656e74202d205f6e756d20697320300000000081525060200191505060405180910390fd5b60c06040519081016040528060206040519081016040528060008152508152602001602060405190810160405280600081525081526020016020604051908101604052806000815250815260200160206040519081016040528060008152508152602001602060405190810160405280600081525081526020016000815250600160008460ff1660ff1681526020019081526020016000206000820151816000019080519060200190612da2929190612ffa565b506020820151816001019080519060200190612dbf92919061307a565b506040820151816002019080519060200190612ddc92919061307a565b506060820151816003019080519060200190612df992919061307a565b506080820151816004019080519060200190612e1692919061307a565b5060a082015181600501559050506005600081819054906101000a900460ff16809291906001900391906101000a81548160ff021916908360ff1602179055505060019050919050565b600181565b600073ffffffffffffffffffffffffffffffffffffffff168173ffffffffffffffffffffffffffffffffffffffff1614151515612f0a576040517f08c379a000000000000000000000000000000000000000000000000000000000815260040180806020018281038252600e8152602001807f6973206e6f74206164647265737300000000000000000000000000000000000081525060200191505060405180910390fd5b8073ffffffffffffffffffffffffffffffffffffffff166000809054906101000a900473ffffffffffffffffffffffffffffffffffffffff1673ffffffffffffffffffffffffffffffffffffffff167f8be0079c531659141344cd1fd0a4f28419497f9722a3daafe3b4186f6b6457e060405160405180910390a3806000806101000a81548173ffffffffffffffffffffffffffffffffffffffff021916908373ffffffffffffffffffffffffffffffffffffffff16021790555050565b815481835581811115612ff557600202816002028360005260206000209182019101612ff4919061317a565b5b505050565b828054600181600116156101000203166002900490600052602060002090601f016020900481019282601f1061303b57805160ff1916838001178555613069565b82800160010185558215613069579182015b8281111561306857825182559160200191906001019061304d565b5b50905061307691906131c8565b5090565b828054600181600116156101000203166002900490600052602060002090601f016020900481019282601f106130bb57805160ff19168380011785556130e9565b828001600101855582156130e9579182015b828111156130e85782518255916020019190600101906130cd565b5b5090506130f691906131c8565b5090565b828054600181600116156101000203166002900490600052602060002090601f016020900481019282601f1061313b57805160ff1916838001178555613169565b82800160010185558215613169579182015b8281111561316857825182559160200191906001019061314d565b5b50905061317691906131c8565b5090565b6131c591905b808211156131c1576000808201600090556001820160006101000a81549073ffffffffffffffffffffffffffffffffffffffff021916905550600201613180565b5090565b90565b6131ea91905b808211156131e65760008160009055506001016131ce565b5090565b905600a165627a7a72305820fa04b1dc9103836b8f3e8cf9c8af800b6613ac3dda11f1e0c6c01bd1ad97e5d90029",
  "source": "pragma solidity >=0.4.24;\n\nimport \"../interface/InterfaceProduct.sol\";\nimport \"../interface/InterfaceInvestModule.sol\";\nimport \"../interface/InterfacePurchaseModule.sol\";\nimport \"../library/SafeMath.sol\";\nimport \"../interface/InterfaceSigStockRegistry.sol\";\n\n/**\n*\n*\t\t\n */\n//   .\n//     +  . \ncontract Product is InterfaceProduct {\n    using SafeMath for uint256;\n    \n\n    constructor(string _title, string _description, uint256 _creatorRate, uint256 _maxDivideValue) public {\n        require(2 ether >= _creatorRate * 1 ether , \"it is exceeded of value [creatorRate]\");\n        require(_creatorRate * 1 ether % 1 ether == 0,\"granularity check\");\n        \n        productTitle = _title;\n        productDescription = _description;\n        creatorRate = _creatorRate * 1 ether;\n        maxDivideValue = _maxDivideValue * 1 ether;\n    }\n\n    struct ModuleInfo {\n        bytes32 key;\n        address moduleAddr;\n    }\n    mapping (uint8 => ModuleInfo[]) public modules;\n    uint8 public constant MAX_MODULES = 10;\n    \n    event SetConfigure(address _from, string _productTitle, string _productDescription);\n    event AddedContent(address _from, bytes _contentKey, string _mainTitle, string _subTitle, uint256 _createdTime);\n    event DeletedContent(address _from, uint8 _num);\n    event LogModuleAdded(\n        uint8 indexed _type,\n        bytes32 _name,\n        address _module,\n        uint256 _timestamp\n    );\n    event LogModuleRemoved(uint8 indexed _type, address _module, uint256 _timestamp);\n    //@ TODO : addContent -  .\n    \n    function addContent(\n        bytes _contentKey,\n        string _mainTitle,\n        string _subTitle,\n        string _description,\n        string _recital\n    ) public onlyOwner returns(bool) {\n        uint256 _createdTime = block.timestamp;\n\n        productItems[contentCount] = ContentData(_contentKey, \n        _mainTitle, \n        _subTitle, \n        _description,\n        _recital,\n        _createdTime\n         );\n\n        contentCount++;\n\n        return true;\n    }\n    //@ TODO  : deleteContent  .\n    function deleteContent(\n        uint8 _num\n    ) public onlyOwner returns (bool) {\n        require(_num != 0, \"fn:deleteContent - _num is 0\");\n        \n        productItems[_num] = ContentData(\"\",\"\",\"\",\"\",\"\",0);\n        contentCount--;\n        \n        return true;\n    }\n\n    function setConfigure(string _title, string _description) public onlyOwner returns(bool) {\n        \n        productTitle = _title;\n        productDescription = _description;\n        \n        emit SetConfigure(msg.sender, productTitle, productDescription);\n    }\n    /**\n    * @dev invest    . \n     */ \n    function getInvestorsLength() public view returns (uint256) {\n        uint256 investorsLength = InterfaceInvestModule(module[INVEST_KEY]).getNumberInvestors();\n        return investorsLength;\n\n    }\n    \n    /**\n    * @dev purchase    .\n     */\n\n    function getPurchasersLength() public view returns (uint256) {\n        uint256 purchasersLength = InterfacePurchaseModule(module[PURCHASE_KEY]).getNumberPurchasers();\n         \n        return purchasersLength;\n    }\n    function addModule(\n        address _moduleAddress\n    ) external onlyOwner returns(bool) {\n        uint8 moduleType = InterfaceModule(_moduleAddress).getType();\n        bytes32 moduleName = InterfaceModule(_moduleAddress).getName();\n        \n        require(modules[moduleType].length < MAX_MODULES, \"Limit of MAX MODULES is reached\");\n        modules[moduleType].push(ModuleInfo(moduleName, _moduleAddress));\n        \n        module[moduleType] = _moduleAddress;\n\n        emit LogModuleAdded(moduleType, moduleName, _moduleAddress, block.timestamp);\n\n        return true;\n    }\n    /**\n    * @dev   .\n     */\n\n    function getModule(uint8 _moduleType, uint8 _moduleIndex) public view returns (bytes32, address) {\n        if (modules[_moduleType].length > 0) {\n            return (\n                modules[_moduleType][_moduleIndex].key,\n                modules[_moduleType][_moduleIndex].moduleAddr\n            );\n        } else {\n            return (\"\", address(0));\n        }\n    }\n    function removeModule(uint8 _moduleType, uint8 _moduleIndex) external onlyOwner returns(bool) {\n        require(_moduleIndex < modules[_moduleType].length,\n        \"Module index doesn't exist as per the choosen module type\");\n        require(module[_moduleType] != address(0), \"is not address(0)\");\n        require(modules[_moduleType][_moduleIndex].moduleAddr != address(0),\n        \"Module contract address should not be 0x\");\n        //Take the last member of the list, and replace _moduleIndex with this, then shorten the list by one\n        \n        if(modules[_moduleType][_moduleIndex].moduleAddr == module[_moduleType]) {\n            module[_moduleType] = address(0);\n        }\n\n        emit LogModuleRemoved(_moduleType, modules[_moduleType][_moduleIndex].moduleAddr, now);\n        \n        modules[_moduleType][_moduleIndex] = modules[_moduleType][modules[_moduleType].length - 1];\n        \n        modules[_moduleType].length = modules[_moduleType].length - 1;\n        \n        return true;\n    }\n    \n    // @ TODO :  .\n    function setInvestConfigure(\n        uint256 _startTime, \n        uint256 _endTime, \n        uint256 _cap, \n        uint256 _max_investors, \n        address _fundsReceiver)\n    public onlyOwner returns (bool) {\n        \n        InterfaceInvestModule(module[INVEST_KEY]).configure(_startTime, _endTime, _cap, _max_investors, _fundsReceiver, msg.sender);\n\n        return true;\n    }\n\n    // @ TODO :  .\n    function setPurchaseConfigure(\n        uint256 _startTime, \n        uint256 _endTime,  \n        address _fundsReceiver)\n    public onlyOwner returns (bool) {\n        \n        InterfacePurchaseModule(module[PURCHASE_KEY]).configure(_startTime, _endTime, _fundsReceiver, msg.sender);\n        \n        return true;\n    }\n\n    function getRaiseKlayFromInvest() public view returns (uint256) {\n        uint256 _getKlay = InterfaceInvestModule(module[INVEST_KEY]).getRaisedKlay();\n\n        return _getKlay;\n    }\n    \n    function getRaiseKlayFromPurchase() public view returns (uint256) {\n        \n        uint256 _getKlay = InterfacePurchaseModule(module[PURCHASE_KEY]).getRaisedKlay();\n        \n        return _getKlay;\n    }\n\n\n}\n",
  "sourcePath": "/Users/berk/side_pj/5nodeProject/smtContract/contracts/product/Product.sol",
  "compiler": {
    "name": "solc",
    "version": "0.4.24+commit.e67f0147.Emscripten.clang"
  },
  "schemaVersion": "3.0.6",
  "updatedAt": "2019-05-25T07:53:18.370Z",
  "devdoc": {
    "methods": {
      "getInvestorsLength()": {
        "details": "invest    . "
      },
      "getModule(uint8,uint8)": {
        "details": "  ."
      },
      "getPurchasersLength()": {
        "details": "purchase    ."
      }
    }
  },
  "userdoc": {
    "methods": {}
  }
}